{
    "contractName": "DaapNFTCreator",
    "abi": [
        {
            "inputs": [
                {
                    "internalType": "address",
                    "name": "_signer",
                    "type": "address"
                },
                {
                    "internalType": "contract IERC20",
                    "name": "_payToken",
                    "type": "address"
                },
                {
                    "internalType": "address",
                    "name": "_nftConfigurations",
                    "type": "address"
                }
            ],
            "stateMutability": "nonpayable",
            "type": "constructor"
        },
        {
            "anonymous": false,
            "inputs": [
                {
                    "indexed": false,
                    "internalType": "address",
                    "name": "nftCollection",
                    "type": "address"
                },
                {
                    "indexed": false,
                    "internalType": "uint256[]",
                    "name": "prices",
                    "type": "uint256[]"
                }
            ],
            "name": "AddNewCollection",
            "type": "event"
        },
        {
            "anonymous": false,
            "inputs": [
                {
                    "indexed": false,
                    "internalType": "uint8",
                    "name": "version",
                    "type": "uint8"
                }
            ],
            "name": "Initialized",
            "type": "event"
        },
        {
            "anonymous": false,
            "inputs": [
                {
                    "components": [
                        {
                            "internalType": "uint256",
                            "name": "rarity",
                            "type": "uint256"
                        },
                        {
                            "internalType": "uint256",
                            "name": "meshIndex",
                            "type": "uint256"
                        },
                        {
                            "internalType": "uint256",
                            "name": "meshMaterial",
                            "type": "uint256"
                        }
                    ],
                    "indexed": false,
                    "internalType": "struct CharacterTokenDetails.MintingOrder[]",
                    "name": "mintingInfos",
                    "type": "tuple[]"
                },
                {
                    "indexed": false,
                    "internalType": "uint256",
                    "name": "discount",
                    "type": "uint256"
                },
                {
                    "indexed": false,
                    "internalType": "address",
                    "name": "to",
                    "type": "address"
                }
            ],
            "name": "MakingMintingAction",
            "type": "event"
        },
        {
            "anonymous": false,
            "inputs": [
                {
                    "indexed": true,
                    "internalType": "address",
                    "name": "previousOwner",
                    "type": "address"
                },
                {
                    "indexed": true,
                    "internalType": "address",
                    "name": "newOwner",
                    "type": "address"
                }
            ],
            "name": "OwnershipTransferred",
            "type": "event"
        },
        {
            "anonymous": false,
            "inputs": [
                {
                    "indexed": false,
                    "internalType": "address",
                    "name": "account",
                    "type": "address"
                }
            ],
            "name": "Paused",
            "type": "event"
        },
        {
            "anonymous": false,
            "inputs": [
                {
                    "indexed": true,
                    "internalType": "bytes32",
                    "name": "role",
                    "type": "bytes32"
                },
                {
                    "indexed": true,
                    "internalType": "bytes32",
                    "name": "previousAdminRole",
                    "type": "bytes32"
                },
                {
                    "indexed": true,
                    "internalType": "bytes32",
                    "name": "newAdminRole",
                    "type": "bytes32"
                }
            ],
            "name": "RoleAdminChanged",
            "type": "event"
        },
        {
            "anonymous": false,
            "inputs": [
                {
                    "indexed": true,
                    "internalType": "bytes32",
                    "name": "role",
                    "type": "bytes32"
                },
                {
                    "indexed": true,
                    "internalType": "address",
                    "name": "account",
                    "type": "address"
                },
                {
                    "indexed": true,
                    "internalType": "address",
                    "name": "sender",
                    "type": "address"
                }
            ],
            "name": "RoleGranted",
            "type": "event"
        },
        {
            "anonymous": false,
            "inputs": [
                {
                    "indexed": true,
                    "internalType": "bytes32",
                    "name": "role",
                    "type": "bytes32"
                },
                {
                    "indexed": true,
                    "internalType": "address",
                    "name": "account",
                    "type": "address"
                },
                {
                    "indexed": true,
                    "internalType": "address",
                    "name": "sender",
                    "type": "address"
                }
            ],
            "name": "RoleRevoked",
            "type": "event"
        },
        {
            "anonymous": false,
            "inputs": [
                {
                    "indexed": false,
                    "internalType": "address",
                    "name": "oldPayToken",
                    "type": "address"
                },
                {
                    "indexed": false,
                    "internalType": "address",
                    "name": "newPayToken",
                    "type": "address"
                }
            ],
            "name": "SetNewPayToken",
            "type": "event"
        },
        {
            "anonymous": false,
            "inputs": [
                {
                    "indexed": false,
                    "internalType": "address",
                    "name": "oldSigner",
                    "type": "address"
                },
                {
                    "indexed": false,
                    "internalType": "address",
                    "name": "newSigner",
                    "type": "address"
                }
            ],
            "name": "SetNewSigner",
            "type": "event"
        },
        {
            "anonymous": false,
            "inputs": [
                {
                    "indexed": false,
                    "internalType": "address",
                    "name": "account",
                    "type": "address"
                }
            ],
            "name": "Unpaused",
            "type": "event"
        },
        {
            "anonymous": false,
            "inputs": [
                {
                    "indexed": false,
                    "internalType": "address",
                    "name": "nftCollection",
                    "type": "address"
                },
                {
                    "indexed": false,
                    "internalType": "uint8",
                    "name": "rarity",
                    "type": "uint8"
                },
                {
                    "indexed": false,
                    "internalType": "uint256",
                    "name": "newPrice",
                    "type": "uint256"
                }
            ],
            "name": "UpdatePrice",
            "type": "event"
        },
        {
            "anonymous": false,
            "inputs": [
                {
                    "indexed": false,
                    "internalType": "uint256",
                    "name": "amount",
                    "type": "uint256"
                }
            ],
            "name": "Withdraw",
            "type": "event"
        },
        {
            "inputs": [],
            "name": "DEFAULT_ADMIN_ROLE",
            "outputs": [
                {
                    "internalType": "bytes32",
                    "name": "",
                    "type": "bytes32"
                }
            ],
            "stateMutability": "view",
            "type": "function",
            "constant": true
        },
        {
            "inputs": [],
            "name": "PAUSER_ROLE",
            "outputs": [
                {
                    "internalType": "bytes32",
                    "name": "",
                    "type": "bytes32"
                }
            ],
            "stateMutability": "view",
            "type": "function",
            "constant": true
        },
        {
            "inputs": [],
            "name": "UPGRADER_ROLE",
            "outputs": [
                {
                    "internalType": "bytes32",
                    "name": "",
                    "type": "bytes32"
                }
            ],
            "stateMutability": "view",
            "type": "function",
            "constant": true
        },
        {
            "inputs": [
                {
                    "internalType": "bytes32",
                    "name": "role",
                    "type": "bytes32"
                }
            ],
            "name": "getRoleAdmin",
            "outputs": [
                {
                    "internalType": "bytes32",
                    "name": "",
                    "type": "bytes32"
                }
            ],
            "stateMutability": "view",
            "type": "function",
            "constant": true
        },
        {
            "inputs": [
                {
                    "internalType": "bytes32",
                    "name": "role",
                    "type": "bytes32"
                },
                {
                    "internalType": "address",
                    "name": "account",
                    "type": "address"
                }
            ],
            "name": "grantRole",
            "outputs": [],
            "stateMutability": "nonpayable",
            "type": "function"
        },
        {
            "inputs": [
                {
                    "internalType": "bytes32",
                    "name": "role",
                    "type": "bytes32"
                },
                {
                    "internalType": "address",
                    "name": "account",
                    "type": "address"
                }
            ],
            "name": "hasRole",
            "outputs": [
                {
                    "internalType": "bool",
                    "name": "",
                    "type": "bool"
                }
            ],
            "stateMutability": "view",
            "type": "function",
            "constant": true
        },
        {
            "inputs": [],
            "name": "nftConfigurations",
            "outputs": [
                {
                    "internalType": "address",
                    "name": "",
                    "type": "address"
                }
            ],
            "stateMutability": "view",
            "type": "function",
            "constant": true
        },
        {
            "inputs": [],
            "name": "owner",
            "outputs": [
                {
                    "internalType": "address",
                    "name": "",
                    "type": "address"
                }
            ],
            "stateMutability": "view",
            "type": "function",
            "constant": true
        },
        {
            "inputs": [],
            "name": "paused",
            "outputs": [
                {
                    "internalType": "bool",
                    "name": "",
                    "type": "bool"
                }
            ],
            "stateMutability": "view",
            "type": "function",
            "constant": true
        },
        {
            "inputs": [],
            "name": "payToken",
            "outputs": [
                {
                    "internalType": "contract IERC20",
                    "name": "",
                    "type": "address"
                }
            ],
            "stateMutability": "view",
            "type": "function",
            "constant": true
        },
        {
            "inputs": [],
            "name": "renounceOwnership",
            "outputs": [],
            "stateMutability": "nonpayable",
            "type": "function"
        },
        {
            "inputs": [
                {
                    "internalType": "bytes32",
                    "name": "role",
                    "type": "bytes32"
                },
                {
                    "internalType": "address",
                    "name": "account",
                    "type": "address"
                }
            ],
            "name": "renounceRole",
            "outputs": [],
            "stateMutability": "nonpayable",
            "type": "function"
        },
        {
            "inputs": [
                {
                    "internalType": "bytes32",
                    "name": "role",
                    "type": "bytes32"
                },
                {
                    "internalType": "address",
                    "name": "account",
                    "type": "address"
                }
            ],
            "name": "revokeRole",
            "outputs": [],
            "stateMutability": "nonpayable",
            "type": "function"
        },
        {
            "inputs": [],
            "name": "signer",
            "outputs": [
                {
                    "internalType": "address",
                    "name": "",
                    "type": "address"
                }
            ],
            "stateMutability": "view",
            "type": "function",
            "constant": true
        },
        {
            "inputs": [
                {
                    "internalType": "bytes4",
                    "name": "interfaceId",
                    "type": "bytes4"
                }
            ],
            "name": "supportsInterface",
            "outputs": [
                {
                    "internalType": "bool",
                    "name": "",
                    "type": "bool"
                }
            ],
            "stateMutability": "view",
            "type": "function",
            "constant": true
        },
        {
            "inputs": [
                {
                    "internalType": "address",
                    "name": "newOwner",
                    "type": "address"
                }
            ],
            "name": "transferOwnership",
            "outputs": [],
            "stateMutability": "nonpayable",
            "type": "function"
        },
        {
            "inputs": [],
            "name": "initialize",
            "outputs": [],
            "stateMutability": "nonpayable",
            "type": "function"
        },
        {
            "inputs": [
                {
                    "internalType": "uint256",
                    "name": "_amount",
                    "type": "uint256"
                }
            ],
            "name": "withdraw",
            "outputs": [],
            "stateMutability": "nonpayable",
            "type": "function"
        },
        {
            "inputs": [],
            "name": "pause",
            "outputs": [],
            "stateMutability": "nonpayable",
            "type": "function"
        },
        {
            "inputs": [],
            "name": "unpause",
            "outputs": [],
            "stateMutability": "nonpayable",
            "type": "function"
        },
        {
            "inputs": [
                {
                    "internalType": "address",
                    "name": "_newPayToken",
                    "type": "address"
                }
            ],
            "name": "setPayToken",
            "outputs": [],
            "stateMutability": "nonpayable",
            "type": "function"
        },
        {
            "inputs": [
                {
                    "internalType": "address",
                    "name": "_newSigner",
                    "type": "address"
                }
            ],
            "name": "setNewSigner",
            "outputs": [],
            "stateMutability": "nonpayable",
            "type": "function"
        },
        {
            "inputs": [
                {
                    "internalType": "contract ICharacterToken",
                    "name": "_nftCollection",
                    "type": "address"
                },
                {
                    "components": [
                        {
                            "internalType": "uint256",
                            "name": "rarity",
                            "type": "uint256"
                        },
                        {
                            "internalType": "uint256",
                            "name": "meshIndex",
                            "type": "uint256"
                        },
                        {
                            "internalType": "uint256",
                            "name": "meshMaterial",
                            "type": "uint256"
                        }
                    ],
                    "internalType": "struct CharacterTokenDetails.MintingOrder[]",
                    "name": "_mintingInfos",
                    "type": "tuple[]"
                },
                {
                    "internalType": "uint256",
                    "name": "_discount",
                    "type": "uint256"
                },
                {
                    "components": [
                        {
                            "internalType": "uint8",
                            "name": "v",
                            "type": "uint8"
                        },
                        {
                            "internalType": "bytes32",
                            "name": "r",
                            "type": "bytes32"
                        },
                        {
                            "internalType": "bytes32",
                            "name": "s",
                            "type": "bytes32"
                        },
                        {
                            "internalType": "uint256",
                            "name": "deadline",
                            "type": "uint256"
                        }
                    ],
                    "internalType": "struct DaapNFTCreator.Proof",
                    "name": "_proof",
                    "type": "tuple"
                },
                {
                    "internalType": "string",
                    "name": "_callbackData",
                    "type": "string"
                }
            ],
            "name": "makeMintingAction",
            "outputs": [],
            "stateMutability": "payable",
            "type": "function",
            "payable": true
        }
    ],
    "bytecode": "0x60806040523480156200001157600080fd5b5060405162001e8a38038062001e8a833981016040819052620000349162000090565b60fb80546001600160a01b039485166001600160a01b03199182161790915560fd80549385169382169390931790925560fc8054919093169116179055620000e4565b6001600160a01b03811681146200008d57600080fd5b50565b600080600060608486031215620000a657600080fd5b8351620000b38162000077565b6020850151909350620000c68162000077565b6040850151909250620000d98162000077565b809150509250925092565b611d9680620000f46000396000f3fe6080604052600436106101405760003560e01c80638129fc1c116100b6578063d2e7f1e81161006f578063d2e7f1e814610371578063d547741f14610384578063e63ab1e9146103a4578063ef8cdac7146103c6578063f2fde38b146103e6578063f72c0d8b1461040657600080fd5b80638129fc1c146102d45780638456cb59146102e95780638da5cb5b146102fe57806391d148541461031c57806396336b301461033c578063a217fddf1461035c57600080fd5b80632f2ff15d116101085780632f2ff15d1461023257806336568abe146102525780633f4ba83a146102725780635c975abb146102875780636f96e99c1461029f578063715018a6146102bf57600080fd5b806301ffc9a7146101455780630f9c5d9e1461017a578063238ac9331461019c578063248a9ca3146101d45780632e1a7d4d14610212575b600080fd5b34801561015157600080fd5b50610165610160366004611703565b610428565b60405190151581526020015b60405180910390f35b34801561018657600080fd5b5061019a610195366004611742565b61045f565b005b3480156101a857600080fd5b5060fb546101bc906001600160a01b031681565b6040516001600160a01b039091168152602001610171565b3480156101e057600080fd5b506102046101ef36600461175f565b60009081526065602052604090206001015490565b604051908152602001610171565b34801561021e57600080fd5b5061019a61022d36600461175f565b6104da565b34801561023e57600080fd5b5061019a61024d366004611778565b610651565b34801561025e57600080fd5b5061019a61026d366004611778565b61067b565b34801561027e57600080fd5b5061019a6106f9565b34801561029357600080fd5b5060975460ff16610165565b3480156102ab57600080fd5b5061019a6102ba366004611742565b61071c565b3480156102cb57600080fd5b5061019a61078e565b3480156102e057600080fd5b5061019a6107a2565b3480156102f557600080fd5b5061019a6108f5565b34801561030a57600080fd5b5060c9546001600160a01b03166101bc565b34801561032857600080fd5b50610165610337366004611778565b610915565b34801561034857600080fd5b5060fd546101bc906001600160a01b031681565b34801561036857600080fd5b50610204600081565b61019a61037f3660046118c0565b610940565b34801561039057600080fd5b5061019a61039f366004611778565b61100a565b3480156103b057600080fd5b50610204600080516020611d4183398151915281565b3480156103d257600080fd5b5060fc546101bc906001600160a01b031681565b3480156103f257600080fd5b5061019a610401366004611742565b61102f565b34801561041257600080fd5b50610204600080516020611d2183398151915281565b60006001600160e01b03198216637965db0b60e01b148061045957506301ffc9a760e01b6001600160e01b03198316145b92915050565b600080516020611d21833981519152610477816110a5565b60fb80546001600160a01b038481166001600160a01b031983168117909355604080519190921680825260208201939093527f2d9138ac99bbbec57529e6d022f34460f90372c0ed9da7aa4177ad1c41ac140291015b60405180910390a1505050565b60006104e5816110a5565b60fd546040516370a0823160e01b815230600482015283916001600160a01b0316906370a0823190602401602060405180830381865afa15801561052d573d6000803e3d6000fd5b505050506040513d601f19601f820116820180604052508101906105519190611986565b10156105a45760405162461bcd60e51b815260206004820152601d60248201527f4e6f7420656e6f75676820746f6b656e7320746f20776974686472617700000060448201526064015b60405180910390fd5b60fd5460405163a9059cbb60e01b8152336004820152602481018490526001600160a01b039091169063a9059cbb906044016020604051808303816000875af11580156105f5573d6000803e3d6000fd5b505050506040513d601f19601f82011682018060405250810190610619919061199f565b506040518281527f5b6b431d4476a211bb7d41c20d1aab9ae2321deee0d20be3d9fc9b1093fa6e3d9060200160405180910390a15050565b60008281526065602052604090206001015461066c816110a5565b61067683836110af565b505050565b6001600160a01b03811633146106eb5760405162461bcd60e51b815260206004820152602f60248201527f416363657373436f6e74726f6c3a2063616e206f6e6c792072656e6f756e636560448201526e103937b632b9903337b91039b2b63360891b606482015260840161059b565b6106f58282611135565b5050565b600080516020611d41833981519152610711816110a5565b61071961119c565b50565b600080516020611d21833981519152610734816110a5565b60fd80546001600160a01b038481166001600160a01b031983168117909355604080519190921680825260208201939093527f95b51941f4e9b50395a323548e977103f9f32e909efa973665c8c2889c4e510691016104cd565b6107966111ee565b6107a06000611248565b565b600054610100900460ff16158080156107c25750600054600160ff909116105b806107dc5750303b1580156107dc575060005460ff166001145b61083f5760405162461bcd60e51b815260206004820152602e60248201527f496e697469616c697a61626c653a20636f6e747261637420697320616c72656160448201526d191e481a5b9a5d1a585b1a5e995960921b606482015260840161059b565b6000805460ff191660011790558015610862576000805461ff0019166101001790555b61086a61129a565b6108726112c1565b61087d6000336112f0565b610895600080516020611d41833981519152336112f0565b6108ad600080516020611d21833981519152336112f0565b8015610719576000805461ff0019169055604051600181527f7f26b83ff96e1f2b6a682f133852f6798a09c465da95921460cefb38474024989060200160405180910390a150565b600080516020611d4183398151915261090d816110a5565b6107196112fa565b60009182526065602090815260408084206001600160a01b0393909316845291905290205460ff1690565b333b156109865760405162461bcd60e51b815260206004820152601460248201527310dbdb9d1c9858dd081b9bdd08185b1b1bddd95960621b604482015260640161059b565b3332146109d55760405162461bcd60e51b815260206004820152601a60248201527f50726f787920636f6e7472616374206e6f7420616c6c6f776564000000000000604482015260640161059b565b83610a385760405162461bcd60e51b815260206004820152602d60248201527f416d6f756e74206f66206d696e74696e67204e465473206d757374206265206760448201526c0726561746572207468616e203609c1b606482015260840161059b565b60008467ffffffffffffffff811115610a5357610a536117a8565b604051908082528060200260200182016040528015610a7c578160200160208202803683370190505b50905060008567ffffffffffffffff811115610a9a57610a9a6117a8565b604051908082528060200260200182016040528015610ac3578160200160208202803683370190505b50905060008667ffffffffffffffff811115610ae157610ae16117a8565b604051908082528060200260200182016040528015610b0a578160200160208202803683370190505b50905060005b87811015610ca35760fc546001600160a01b031663e23d3d178b8b8b85818110610b3c57610b3c6119c1565b9050606002016040518363ffffffff1660e01b8152600401610b5f9291906119d7565b602060405180830381865afa158015610b7c573d6000803e3d6000fd5b505050506040513d601f19601f82011682018060405250810190610ba0919061199f565b610be45760405162461bcd60e51b8152602060048201526015602482015274496e76616c6964206d696e74696e6720696e666f7360581b604482015260640161059b565b888882818110610bf657610bf66119c1565b90506060020160000135848281518110610c1257610c126119c1565b602002602001018181525050888882818110610c3057610c306119c1565b90506060020160200135838281518110610c4c57610c4c6119c1565b602002602001018181525050888882818110610c6a57610c6a6119c1565b90506060020160400135828281518110610c8657610c866119c1565b602090810291909101015280610c9b81611a1e565b915050610b10565b5060fb54610cbf906001600160a01b03168a888686868b611337565b610cff5760405162461bcd60e51b8152602060048201526011602482015270496e76616c6964205369676e617475726560781b604482015260640161059b565b6000805b88811015610de95760fc546001600160a01b0316635728f7988c8c8c85818110610d2f57610d2f6119c1565b905060600201600001358d8d86818110610d4b57610d4b6119c1565b6040516001600160e01b031960e088901b1681526001600160a01b039095166004860152602485019390935250602060609092020101356044820152606401602060405180830381865afa158015610da7573d6000803e3d6000fd5b505050506040513d601f19601f82011682018060405250810190610dcb9190611986565b610dd59083611a37565b915080610de181611a1e565b915050610d03565b50610df48782611a4a565b60fd546040516370a0823160e01b81523360048201526001600160a01b03909116906370a0823190602401602060405180830381865afa158015610e3c573d6000803e3d6000fd5b505050506040513d601f19601f82011682018060405250810190610e609190611986565b11610ec75760405162461bcd60e51b815260206004820152603160248201527f55736572206e6565647320746f20686f6c6420656e6f75676820746f6b656e206044820152703a3790313abc903a3434b9903a37b5b2b760791b606482015260840161059b565b60fd546001600160a01b03166323b872dd3330610ee48b86611a4a565b6040516001600160e01b031960e086901b1681526001600160a01b03938416600482015292909116602483015260448201526064016020604051808303816000875af1158015610f38573d6000803e3d6000fd5b505050506040513d601f19601f82011682018060405250810190610f5c919061199f565b50604051630a8a572f60e31b81526001600160a01b038b1690635452b97890610f8f908c908c9033908b90600401611af8565b600060405180830381600087803b158015610fa957600080fd5b505af1158015610fbd573d6000803e3d6000fd5b505050507f20e9eed22c48561a05a69e2b655a8605c58f1a3ff7ccfaee348d88ab04a7307089898933604051610ff69493929190611b2d565b60405180910390a150505050505050505050565b600082815260656020526040902060010154611025816110a5565b6106768383611135565b6110376111ee565b6001600160a01b03811661109c5760405162461bcd60e51b815260206004820152602660248201527f4f776e61626c653a206e6577206f776e657220697320746865207a65726f206160448201526564647265737360d01b606482015260840161059b565b61071981611248565b610719813361143a565b6110b98282610915565b6106f55760008281526065602090815260408083206001600160a01b03851684529091529020805460ff191660011790556110f13390565b6001600160a01b0316816001600160a01b0316837f2f8788117e7eff1d82e926ec794901d17c78024a50270940304540a733656f0d60405160405180910390a45050565b61113f8282610915565b156106f55760008281526065602090815260408083206001600160a01b0385168085529252808320805460ff1916905551339285917ff6391f5c32d9c69d2a47ea670b442974b53935d1edc7fd64eb21e047a839171b9190a45050565b6111a461149e565b6097805460ff191690557f5db9ee0a495bf2e6ff9c91a7834c1ba4fdd244a5e8aa4e537bd38aeae4b073aa335b6040516001600160a01b03909116815260200160405180910390a1565b60c9546001600160a01b031633146107a05760405162461bcd60e51b815260206004820181905260248201527f4f776e61626c653a2063616c6c6572206973206e6f7420746865206f776e6572604482015260640161059b565b60c980546001600160a01b038381166001600160a01b0319831681179093556040519116919082907f8be0079c531659141344cd1fd0a4f28419497f9722a3daafe3b4186f6b6457e090600090a35050565b600054610100900460ff166107a05760405162461bcd60e51b815260040161059b90611b62565b600054610100900460ff166112e85760405162461bcd60e51b815260040161059b90611b62565b6107a06114e7565b6106f582826110af565b61130261151a565b6097805460ff191660011790557f62e78cea01bee320cd4e420270b5ea74000d11b0c9f74754ebdbfc544b05a2586111d13390565b60006001600160a01b03881661134f5750600161142f565b60004660608401516040516113759291339130918d918d918d918d918d91602001611be8565b6040516020818303038152906040528051906020012090506000600182856000015186602001518760400151604051600081526020016040526040516113d7949392919093845260ff9290921660208401526040830152606082015260800190565b6020604051602081039080840390855afa1580156113f9573d6000803e3d6000fd5b505050602060405103519050896001600160a01b0316816001600160a01b031614801561142a575042846060015110155b925050505b979650505050505050565b6114448282610915565b6106f55761145c816001600160a01b03166014611560565b611467836020611560565b604051602001611478929190611c6a565b60408051601f198184030181529082905262461bcd60e51b825261059b91600401611cdf565b60975460ff166107a05760405162461bcd60e51b815260206004820152601460248201527314185d5cd8589b194e881b9bdd081c185d5cd95960621b604482015260640161059b565b600054610100900460ff1661150e5760405162461bcd60e51b815260040161059b90611b62565b6097805460ff19169055565b60975460ff16156107a05760405162461bcd60e51b815260206004820152601060248201526f14185d5cd8589b194e881c185d5cd95960821b604482015260640161059b565b6060600061156f836002611cf2565b61157a906002611a37565b67ffffffffffffffff811115611592576115926117a8565b6040519080825280601f01601f1916602001820160405280156115bc576020820181803683370190505b509050600360fc1b816000815181106115d7576115d76119c1565b60200101906001600160f81b031916908160001a905350600f60fb1b81600181518110611606576116066119c1565b60200101906001600160f81b031916908160001a905350600061162a846002611cf2565b611635906001611a37565b90505b60018111156116ad576f181899199a1a9b1b9c1cb0b131b232b360811b85600f1660108110611669576116696119c1565b1a60f81b82828151811061167f5761167f6119c1565b60200101906001600160f81b031916908160001a90535060049490941c936116a681611d09565b9050611638565b5083156116fc5760405162461bcd60e51b815260206004820181905260248201527f537472696e67733a20686578206c656e67746820696e73756666696369656e74604482015260640161059b565b9392505050565b60006020828403121561171557600080fd5b81356001600160e01b0319811681146116fc57600080fd5b6001600160a01b038116811461071957600080fd5b60006020828403121561175457600080fd5b81356116fc8161172d565b60006020828403121561177157600080fd5b5035919050565b6000806040838503121561178b57600080fd5b82359150602083013561179d8161172d565b809150509250929050565b634e487b7160e01b600052604160045260246000fd5b6000608082840312156117d057600080fd5b6040516080810181811067ffffffffffffffff821117156117f3576117f36117a8565b604052905080823560ff8116811461180a57600080fd5b808252506020830135602082015260408301356040820152606083013560608201525092915050565b600082601f83011261184457600080fd5b813567ffffffffffffffff8082111561185f5761185f6117a8565b604051601f8301601f19908116603f01168101908282118183101715611887576118876117a8565b816040528381528660208588010111156118a057600080fd5b836020870160208301376000602085830101528094505050505092915050565b60008060008060008061010087890312156118da57600080fd5b86356118e58161172d565b9550602087013567ffffffffffffffff8082111561190257600080fd5b818901915089601f83011261191657600080fd5b81358181111561192557600080fd5b8a602060608302850101111561193a57600080fd5b6020830197509550604089013594506119568a60608b016117be565b935060e089013591508082111561196c57600080fd5b5061197989828a01611833565b9150509295509295509295565b60006020828403121561199857600080fd5b5051919050565b6000602082840312156119b157600080fd5b815180151581146116fc57600080fd5b634e487b7160e01b600052603260045260246000fd5b6001600160a01b0383168152608081016116fc60208301848035825260208082013590830152604090810135910152565b634e487b7160e01b600052601160045260246000fd5b600060018201611a3057611a30611a08565b5060010190565b8082018082111561045957610459611a08565b8181038181111561045957610459611a08565b81835260208301925060008160005b84811015611a9e5781358652602080830135908701526040808301359087015260609586019590910190600101611a6c565b5093949350505050565b60005b83811015611ac3578181015183820152602001611aab565b50506000910152565b60008151808452611ae4816020860160208601611aa8565b601f01601f19169290920160200192915050565b606081526000611b0c606083018688611a5d565b6001600160a01b0385166020840152828103604084015261142f8185611acc565b606081526000611b41606083018688611a5d565b6020830194909452506001600160a01b039190911660409091015292915050565b6020808252602b908201527f496e697469616c697a61626c653a20636f6e7472616374206973206e6f74206960408201526a6e697469616c697a696e6760a81b606082015260800190565b600081518084526020808501945080840160005b83811015611bdd57815187529582019590820190600101611bc1565b509495945050505050565b8981526001600160a01b0389811660208301528881166040830152871660608201526080810186905261012060a08201819052600090611c2a83820188611bad565b905082810360c0840152611c3e8187611bad565b905082810360e0840152611c528186611bad565b915050826101008301529a9950505050505050505050565b7f416363657373436f6e74726f6c3a206163636f756e7420000000000000000000815260008351611ca2816017850160208801611aa8565b7001034b99036b4b9b9b4b733903937b6329607d1b6017918401918201528351611cd3816028840160208801611aa8565b01602801949350505050565b6020815260006116fc6020830184611acc565b808202811582820484141761045957610459611a08565b600081611d1857611d18611a08565b50600019019056fe189ab7a9244df0848122154315af71fe140f3db0fe014031783b0946b8c9d2e365d7a28e3265b37a6474929f336521b332c1681b933f6cb9f3376673440d862aa264697066735822122082ad6d11e143a452c44381b09d9b6f8352ed4e3b9be20ce774c650cc5cd6858f64736f6c63430008110033",
    "immutableReferences": {},
    "source": "// SPDX-License-Identifier: MIT\npragma solidity ^0.8.0;\n\nimport \"@openzeppelin/contracts-upgradeable/access/AccessControlUpgradeable.sol\";\nimport \"@openzeppelin/contracts-upgradeable/security/PausableUpgradeable.sol\";\nimport \"@openzeppelin/contracts-upgradeable/access/OwnableUpgradeable.sol\";\nimport \"@openzeppelin/contracts/token/ERC20/IERC20.sol\";\nimport \"@openzeppelin/contracts/token/ERC20/utils/SafeERC20.sol\";\nimport \"./interfaces/ICharacterToken.sol\";\nimport \"./interfaces/INftConfigurations.sol\";\nimport \"./libraries/CharacterTokenDetails.sol\";\n\n\ncontract DaapNFTCreator is \n    AccessControlUpgradeable,\n    PausableUpgradeable,\n    OwnableUpgradeable\n{   \n    using SafeERC20 for IERC20;\n    using CharacterTokenDetails for CharacterTokenDetails.MintingOrder;\n\n    /**\n     *      @dev Defines using Structs\n     */\n    struct Proof {\n        uint8 v;\n        bytes32 r;\n        bytes32 s;\n        uint256 deadline;\n    }\n\n    /**\n     *      @dev Define variables in contract\n     */\n    bytes32 public constant PAUSER_ROLE = keccak256(\"PAUSER_ROLE\");\n    bytes32 public constant UPGRADER_ROLE = keccak256(\"UPGRADER_ROLE\");\n\n    // Signer for mint with signature\n    address public signer;\n\n    // Configurations address\n    address public nftConfigurations;\n\n    // Token using to pay for minting NFT\n    IERC20 public payToken;\n\n    /**\n     *      @dev Define events that contract will emit\n     */\n    event SetNewSigner(address oldSigner, address newSigner);\n    event UpdatePrice(address nftCollection, uint8 rarity, uint256 newPrice);\n    event MakingMintingAction(CharacterTokenDetails.MintingOrder[] mintingInfos, uint256 discount, address to);\n    event SetNewPayToken(address oldPayToken, address newPayToken);\n    event Withdraw(uint256 amount);\n    event AddNewCollection(address nftCollection, uint256[] prices);\n\n    /**\n     *      @dev Modifiers using in contract \n     */\n    modifier notContract() {\n        require(!_isContract(msg.sender), \"Contract not allowed\");\n        require(msg.sender == tx.origin, \"Proxy contract not allowed\");\n        _;\n    }\n\n    /**\n     *      @dev Contructor\n     */\n    constructor (address _signer, IERC20 _payToken, address _nftConfigurations) {\n        signer = _signer;\n        payToken = _payToken;\n        nftConfigurations = _nftConfigurations;\n    }\n\n    /**\n     *      @dev Initialize function\n     */\n    function initialize() public initializer {\n        __AccessControl_init();\n        __Pausable_init();\n\n        _setupRole(DEFAULT_ADMIN_ROLE, msg.sender);\n        _setupRole(PAUSER_ROLE, msg.sender);\n        _setupRole(UPGRADER_ROLE, msg.sender);\n    }\n\n    /**\n     *      @dev Function allows ADMIN to withdraw token in contract\n     */\n    function withdraw(uint256 _amount) external onlyRole(DEFAULT_ADMIN_ROLE) {\n        require(payToken.balanceOf(address(this)) >= _amount, \"Not enough tokens to withdraw\");\n        payToken.transfer(msg.sender, _amount);\n        emit Withdraw(_amount);\n    }\n\n    function pause() public onlyRole(PAUSER_ROLE) {\n        _pause();\n    }\n\n    function unpause() public onlyRole(PAUSER_ROLE) {\n        _unpause();\n    }\n\n    /**\n     *  @notice Function allows UPGRADER to set new PayToken\n     */\n    function setPayToken(address _newPayToken) external onlyRole(UPGRADER_ROLE) {\n        address oldPayToken = address(payToken);\n        payToken = IERC20(_newPayToken);\n        emit SetNewPayToken(oldPayToken, _newPayToken);\n    }\n\n    /**\n     *  @notice Set new signer who confirm a call from daap\n     */\n    function setNewSigner(address _newSigner) external onlyRole(UPGRADER_ROLE) {\n        address oldSigner = signer;\n        signer = _newSigner;\n        emit SetNewSigner(oldSigner, _newSigner);\n    }\n\n    /**\n     *  @notice Function return chainID of current implemented chain\n     */\n    function getChainID() private view returns (uint256) {\n        uint256 id;\n        assembly {\n            id := chainid()\n        }\n        return id;\n    }\n\n    /**\n     *      @notice Function verify signature from daap sent out\n     */\n    function verifySignature(\n        address _signer,\n        address _nftCollection,\n        uint256 _discount,\n        uint256[] memory _rarities,\n        uint256[] memory _meshIndexes,\n        uint256[] memory _meshMaterials,\n        Proof memory _proof\n    ) private view returns (bool) \n    {\n        if (_signer == address(0x0)) {\n            return true;\n        }\n        bytes32 digest = keccak256(abi.encode(\n            getChainID(),\n            msg.sender,\n            this,\n            address(_nftCollection),\n            _discount,\n            _rarities,\n            _meshIndexes,\n            _meshMaterials,\n            _proof.deadline\n        ));\n        address signatory = ecrecover(digest, _proof.v, _proof.r, _proof.s);\n        return signatory == _signer && _proof.deadline >= block.timestamp;\n    }\n\n\n    /**\n     *  @notice Function allow call external from daap to make miting action\n     *\n     */\n    function makeMintingAction(\n        ICharacterToken _nftCollection,\n        CharacterTokenDetails.MintingOrder[] calldata _mintingInfos,\n        uint256 _discount,\n        Proof memory _proof,\n        string memory _callbackData\n    ) external payable  notContract {\n        require(_mintingInfos.length > 0, \"Amount of minting NFTs must be greater than 0\");\n        uint256[] memory _rarities = new uint256[](_mintingInfos.length);\n        uint256[] memory _meshIndexes = new uint256[](_mintingInfos.length);\n        uint256[] memory _meshMaterials = new uint256[](_mintingInfos.length);\n        for (uint256 i=0; i < _mintingInfos.length; i++) {\n            require(\n                INftConfigurations(nftConfigurations).checkValidMintingAttributes(\n                    address(_nftCollection),\n                    _mintingInfos[i]\n                ),\n                \"Invalid minting infos\"\n            );\n            _rarities[i] = _mintingInfos[i].rarity;\n            _meshIndexes[i] = _mintingInfos[i].meshIndex;\n            _meshMaterials[i] = _mintingInfos[i].meshMaterial;\n        }\n        require(\n            verifySignature(\n                signer,\n                address(_nftCollection),\n                _discount,\n                _rarities,\n                _meshIndexes,\n                _meshMaterials,\n                _proof\n            ),\n            \"Invalid Signature\"\n        );\n        uint256 _amount = 0;\n        for (uint256 i=0; i < _mintingInfos.length; i++) {\n            _amount += INftConfigurations(nftConfigurations).getPrice(\n                address(_nftCollection),\n                _mintingInfos[i].rarity,\n                _mintingInfos[i].meshIndex\n            );\n        }\n        require(payToken.balanceOf(msg.sender) > _amount - _discount, \"User needs to hold enough token to buy this token\");\n        payToken.transferFrom(msg.sender, address(this), _amount - _discount);\n        _nftCollection.mintOrderFromDaapCreator(\n            _mintingInfos,\n            msg.sender,\n            _callbackData\n        );\n        emit MakingMintingAction(_mintingInfos, _discount, msg.sender);\n    }\n\n    /**\n     * @notice Checks if address is a contract\n     * @dev It prevents contract from being targetted\n     */\n    function _isContract(address addr) internal view returns (bool) {\n        uint256 size;\n        assembly {\n            size := extcodesize(addr)\n        }\n        return size > 0;\n    }\n    \n}",
    "sourcePath": "/Users/phamanhtai/ATOM/katana-inu/ktn-smc/contracts/DappNFTCreator.sol",
    "compiler": {
        "name": "solc",
        "version": "0.8.17+commit.8df45f5f.Emscripten.clang"
    },
    "schemaVersion": "3.4.10",
    "updatedAt": "2022-11-18T08:42:06.278Z",
    "networkType": "ethereum",
    "devdoc": {
        "events": {
            "SetNewSigner(address,address)": {
                "details": "Define events that contract will emit"
            }
        },
        "kind": "dev",
        "methods": {
            "constructor": {
                "details": "Contructor"
            },
            "getRoleAdmin(bytes32)": {
                "details": "Returns the admin role that controls `role`. See {grantRole} and {revokeRole}. To change a role's admin, use {_setRoleAdmin}."
            },
            "grantRole(bytes32,address)": {
                "details": "Grants `role` to `account`. If `account` had not been already granted `role`, emits a {RoleGranted} event. Requirements: - the caller must have ``role``'s admin role. May emit a {RoleGranted} event."
            },
            "hasRole(bytes32,address)": {
                "details": "Returns `true` if `account` has been granted `role`."
            },
            "initialize()": {
                "details": "Initialize function"
            },
            "owner()": {
                "details": "Returns the address of the current owner."
            },
            "paused()": {
                "details": "Returns true if the contract is paused, and false otherwise."
            },
            "renounceOwnership()": {
                "details": "Leaves the contract without owner. It will not be possible to call `onlyOwner` functions anymore. Can only be called by the current owner. NOTE: Renouncing ownership will leave the contract without an owner, thereby removing any functionality that is only available to the owner."
            },
            "renounceRole(bytes32,address)": {
                "details": "Revokes `role` from the calling account. Roles are often managed via {grantRole} and {revokeRole}: this function's purpose is to provide a mechanism for accounts to lose their privileges if they are compromised (such as when a trusted device is misplaced). If the calling account had been revoked `role`, emits a {RoleRevoked} event. Requirements: - the caller must be `account`. May emit a {RoleRevoked} event."
            },
            "revokeRole(bytes32,address)": {
                "details": "Revokes `role` from `account`. If `account` had been granted `role`, emits a {RoleRevoked} event. Requirements: - the caller must have ``role``'s admin role. May emit a {RoleRevoked} event."
            },
            "supportsInterface(bytes4)": {
                "details": "See {IERC165-supportsInterface}."
            },
            "transferOwnership(address)": {
                "details": "Transfers ownership of the contract to a new account (`newOwner`). Can only be called by the current owner."
            },
            "withdraw(uint256)": {
                "details": "Function allows ADMIN to withdraw token in contract"
            }
        },
        "stateVariables": {
            "PAUSER_ROLE": {
                "details": "Define variables in contract"
            }
        },
        "version": 1
    },
    "userdoc": {
        "kind": "user",
        "methods": {
            "makeMintingAction(address,(uint256,uint256,uint256)[],uint256,(uint8,bytes32,bytes32,uint256),string)": {
                "notice": "Function allow call external from daap to make miting action"
            },
            "setNewSigner(address)": {
                "notice": "Set new signer who confirm a call from daap"
            },
            "setPayToken(address)": {
                "notice": "Function allows UPGRADER to set new PayToken"
            }
        },
        "version": 1
    }
}