{
    "contractName": "KatanaNftFactory",
    "abi": [
        {
            "inputs": [
                {
                    "internalType": "address",
                    "name": "_dappCreatorAddress",
                    "type": "address"
                },
                {
                    "internalType": "contract INftConfigurations",
                    "name": "_nftConfigurations",
                    "type": "address"
                }
            ],
            "stateMutability": "nonpayable",
            "type": "constructor"
        },
        {
            "anonymous": false,
            "inputs": [
                {
                    "indexed": false,
                    "internalType": "address",
                    "name": "_nftCollection",
                    "type": "address"
                },
                {
                    "indexed": false,
                    "internalType": "uint256",
                    "name": "_rarity",
                    "type": "uint256"
                },
                {
                    "indexed": false,
                    "internalType": "uint256",
                    "name": "_meshIndex",
                    "type": "uint256"
                },
                {
                    "indexed": false,
                    "internalType": "uint256",
                    "name": "_price",
                    "type": "uint256"
                }
            ],
            "name": "ConfigMesh",
            "type": "event"
        },
        {
            "anonymous": false,
            "inputs": [
                {
                    "indexed": false,
                    "internalType": "address",
                    "name": "_nftCollection",
                    "type": "address"
                },
                {
                    "indexed": false,
                    "internalType": "uint256",
                    "name": "_rarity",
                    "type": "uint256"
                },
                {
                    "indexed": false,
                    "internalType": "uint256",
                    "name": "_meshIndex",
                    "type": "uint256"
                },
                {
                    "indexed": false,
                    "internalType": "uint256",
                    "name": "_price",
                    "type": "uint256"
                },
                {
                    "indexed": false,
                    "internalType": "uint256",
                    "name": "_meshMaterial",
                    "type": "uint256"
                },
                {
                    "indexed": false,
                    "internalType": "string",
                    "name": "_cid",
                    "type": "string"
                }
            ],
            "name": "ConfigOne",
            "type": "event"
        },
        {
            "anonymous": false,
            "inputs": [
                {
                    "indexed": false,
                    "internalType": "address",
                    "name": "nftAddress",
                    "type": "address"
                },
                {
                    "indexed": false,
                    "internalType": "address",
                    "name": "dappCreatorAddress",
                    "type": "address"
                }
            ],
            "name": "CreateNftCollection",
            "type": "event"
        },
        {
            "anonymous": false,
            "inputs": [
                {
                    "indexed": true,
                    "internalType": "bytes32",
                    "name": "role",
                    "type": "bytes32"
                },
                {
                    "indexed": true,
                    "internalType": "bytes32",
                    "name": "previousAdminRole",
                    "type": "bytes32"
                },
                {
                    "indexed": true,
                    "internalType": "bytes32",
                    "name": "newAdminRole",
                    "type": "bytes32"
                }
            ],
            "name": "RoleAdminChanged",
            "type": "event"
        },
        {
            "anonymous": false,
            "inputs": [
                {
                    "indexed": true,
                    "internalType": "bytes32",
                    "name": "role",
                    "type": "bytes32"
                },
                {
                    "indexed": true,
                    "internalType": "address",
                    "name": "account",
                    "type": "address"
                },
                {
                    "indexed": true,
                    "internalType": "address",
                    "name": "sender",
                    "type": "address"
                }
            ],
            "name": "RoleGranted",
            "type": "event"
        },
        {
            "anonymous": false,
            "inputs": [
                {
                    "indexed": true,
                    "internalType": "bytes32",
                    "name": "role",
                    "type": "bytes32"
                },
                {
                    "indexed": true,
                    "internalType": "address",
                    "name": "account",
                    "type": "address"
                },
                {
                    "indexed": true,
                    "internalType": "address",
                    "name": "sender",
                    "type": "address"
                }
            ],
            "name": "RoleRevoked",
            "type": "event"
        },
        {
            "anonymous": false,
            "inputs": [
                {
                    "indexed": false,
                    "internalType": "address",
                    "name": "newConfiguration",
                    "type": "address"
                }
            ],
            "name": "SetConfiguration",
            "type": "event"
        },
        {
            "anonymous": false,
            "inputs": [
                {
                    "indexed": false,
                    "internalType": "address",
                    "name": "newDappCreator",
                    "type": "address"
                }
            ],
            "name": "SetDappCreator",
            "type": "event"
        },
        {
            "anonymous": false,
            "inputs": [
                {
                    "indexed": false,
                    "internalType": "address",
                    "name": "nftCollection",
                    "type": "address"
                },
                {
                    "indexed": false,
                    "internalType": "address",
                    "name": "newMinter",
                    "type": "address"
                }
            ],
            "name": "SetNewMinterRole",
            "type": "event"
        },
        {
            "inputs": [],
            "name": "DEFAULT_ADMIN_ROLE",
            "outputs": [
                {
                    "internalType": "bytes32",
                    "name": "",
                    "type": "bytes32"
                }
            ],
            "stateMutability": "view",
            "type": "function",
            "constant": true
        },
        {
            "inputs": [],
            "name": "IMPLEMENTATION_ROLE",
            "outputs": [
                {
                    "internalType": "bytes32",
                    "name": "",
                    "type": "bytes32"
                }
            ],
            "stateMutability": "view",
            "type": "function",
            "constant": true
        },
        {
            "inputs": [],
            "name": "dappCreatorAddress",
            "outputs": [
                {
                    "internalType": "address",
                    "name": "",
                    "type": "address"
                }
            ],
            "stateMutability": "view",
            "type": "function",
            "constant": true
        },
        {
            "inputs": [
                {
                    "internalType": "bytes32",
                    "name": "role",
                    "type": "bytes32"
                }
            ],
            "name": "getRoleAdmin",
            "outputs": [
                {
                    "internalType": "bytes32",
                    "name": "",
                    "type": "bytes32"
                }
            ],
            "stateMutability": "view",
            "type": "function",
            "constant": true
        },
        {
            "inputs": [
                {
                    "internalType": "bytes32",
                    "name": "role",
                    "type": "bytes32"
                },
                {
                    "internalType": "address",
                    "name": "account",
                    "type": "address"
                }
            ],
            "name": "grantRole",
            "outputs": [],
            "stateMutability": "nonpayable",
            "type": "function"
        },
        {
            "inputs": [
                {
                    "internalType": "bytes32",
                    "name": "role",
                    "type": "bytes32"
                },
                {
                    "internalType": "address",
                    "name": "account",
                    "type": "address"
                }
            ],
            "name": "hasRole",
            "outputs": [
                {
                    "internalType": "bool",
                    "name": "",
                    "type": "bool"
                }
            ],
            "stateMutability": "view",
            "type": "function",
            "constant": true
        },
        {
            "inputs": [],
            "name": "implementationAddress",
            "outputs": [
                {
                    "internalType": "address",
                    "name": "",
                    "type": "address"
                }
            ],
            "stateMutability": "view",
            "type": "function",
            "constant": true
        },
        {
            "inputs": [],
            "name": "nftConfigurations",
            "outputs": [
                {
                    "internalType": "contract INftConfigurations",
                    "name": "",
                    "type": "address"
                }
            ],
            "stateMutability": "view",
            "type": "function",
            "constant": true
        },
        {
            "inputs": [
                {
                    "internalType": "bytes32",
                    "name": "role",
                    "type": "bytes32"
                },
                {
                    "internalType": "address",
                    "name": "account",
                    "type": "address"
                }
            ],
            "name": "renounceRole",
            "outputs": [],
            "stateMutability": "nonpayable",
            "type": "function"
        },
        {
            "inputs": [
                {
                    "internalType": "bytes32",
                    "name": "role",
                    "type": "bytes32"
                },
                {
                    "internalType": "address",
                    "name": "account",
                    "type": "address"
                }
            ],
            "name": "revokeRole",
            "outputs": [],
            "stateMutability": "nonpayable",
            "type": "function"
        },
        {
            "inputs": [
                {
                    "internalType": "contract INftConfigurations",
                    "name": "_nftConfigurations",
                    "type": "address"
                }
            ],
            "name": "setConfiguration",
            "outputs": [],
            "stateMutability": "nonpayable",
            "type": "function"
        },
        {
            "inputs": [
                {
                    "internalType": "string",
                    "name": "_name",
                    "type": "string"
                },
                {
                    "internalType": "string",
                    "name": "_symbol",
                    "type": "string"
                }
            ],
            "name": "createNftCollection",
            "outputs": [],
            "stateMutability": "nonpayable",
            "type": "function"
        },
        {
            "inputs": [
                {
                    "internalType": "address",
                    "name": "_nftCollection",
                    "type": "address"
                },
                {
                    "internalType": "uint256",
                    "name": "_rarity",
                    "type": "uint256"
                },
                {
                    "internalType": "uint256",
                    "name": "_meshIndex",
                    "type": "uint256"
                },
                {
                    "internalType": "uint256",
                    "name": "_price",
                    "type": "uint256"
                },
                {
                    "internalType": "uint256",
                    "name": "_meshMaterial",
                    "type": "uint256"
                },
                {
                    "internalType": "string",
                    "name": "_cid",
                    "type": "string"
                }
            ],
            "name": "configOne",
            "outputs": [],
            "stateMutability": "nonpayable",
            "type": "function"
        },
        {
            "inputs": [
                {
                    "internalType": "address",
                    "name": "_nftCollection",
                    "type": "address"
                },
                {
                    "internalType": "uint256",
                    "name": "_rarity",
                    "type": "uint256"
                },
                {
                    "internalType": "uint256",
                    "name": "_meshIndex",
                    "type": "uint256"
                },
                {
                    "internalType": "uint256",
                    "name": "_price",
                    "type": "uint256"
                }
            ],
            "name": "configMesh",
            "outputs": [],
            "stateMutability": "nonpayable",
            "type": "function"
        },
        {
            "inputs": [
                {
                    "internalType": "bytes4",
                    "name": "interfaceId",
                    "type": "bytes4"
                }
            ],
            "name": "supportsInterface",
            "outputs": [
                {
                    "internalType": "bool",
                    "name": "",
                    "type": "bool"
                }
            ],
            "stateMutability": "view",
            "type": "function",
            "constant": true
        },
        {
            "inputs": [],
            "name": "getCurrentDappCreatorAddress",
            "outputs": [
                {
                    "internalType": "address",
                    "name": "",
                    "type": "address"
                }
            ],
            "stateMutability": "view",
            "type": "function",
            "constant": true
        },
        {
            "inputs": [
                {
                    "internalType": "uint256",
                    "name": "index",
                    "type": "uint256"
                }
            ],
            "name": "getCollectionAddress",
            "outputs": [
                {
                    "internalType": "address",
                    "name": "",
                    "type": "address"
                }
            ],
            "stateMutability": "view",
            "type": "function",
            "constant": true
        },
        {
            "inputs": [
                {
                    "internalType": "address",
                    "name": "_nftCollection",
                    "type": "address"
                }
            ],
            "name": "isValidNftCollection",
            "outputs": [
                {
                    "internalType": "bool",
                    "name": "",
                    "type": "bool"
                }
            ],
            "stateMutability": "view",
            "type": "function",
            "constant": true
        },
        {
            "inputs": [
                {
                    "internalType": "address",
                    "name": "_dappCreatorAddress",
                    "type": "address"
                }
            ],
            "name": "setDappCreatorAddress",
            "outputs": [],
            "stateMutability": "nonpayable",
            "type": "function"
        },
        {
            "inputs": [
                {
                    "internalType": "address",
                    "name": "_characterToken",
                    "type": "address"
                },
                {
                    "internalType": "address",
                    "name": "_newMinter",
                    "type": "address"
                }
            ],
            "name": "setNewMinter",
            "outputs": [],
            "stateMutability": "nonpayable",
            "type": "function"
        }
    ],
    "bytecode": "0x60806040523480156200001157600080fd5b5060405162005977380380620059778339810160408190526200003491620001c8565b600380546001600160a01b038085166001600160a01b03199283161790925560048054928416929091169190911790556040516200007290620001a1565b604051809103906000f0801580156200008f573d6000803e3d6000fd5b50600580546001600160a01b0319166001600160a01b0392909216919091179055620000dc7f8f257e937a449d287051f1249e0edc3b5d08b547aa4f08807b9ce2a406bcf60f33620000f1565b620000e9600033620000f1565b505062000207565b620000fd828262000101565b5050565b6000828152602081815260408083206001600160a01b038516845290915290205460ff16620000fd576000828152602081815260408083206001600160a01b03851684529091529020805460ff191660011790556200015d3390565b6001600160a01b0316816001600160a01b0316837f2f8788117e7eff1d82e926ec794901d17c78024a50270940304540a733656f0d60405160405180910390a45050565b614444806200153383390190565b6001600160a01b0381168114620001c557600080fd5b50565b60008060408385031215620001dc57600080fd5b8251620001e981620001af565b6020840151909250620001fc81620001af565b809150509250929050565b61131c80620002176000396000f3fe608060405234801561001057600080fd5b506004361061012c5760003560e01c80637f6d5bf1116100ad578063ac4807ff11610071578063ac4807ff14610285578063b97a231914610298578063d547741f146102ab578063ef8cdac7146102be578063f3b37a5e146102d157600080fd5b80637f6d5bf1146102315780638a0449d61461024457806391d1485414610257578063a217fddf1461026a578063a9039e251461027257600080fd5b806340174e05116100f457806340174e05146101dd57806352afe4a1146101f0578063627f09c31461020357806371efede9146102165780637c071be31461021e57600080fd5b806301ffc9a714610131578063248a9ca3146101595780632f2ff15d1461018a578063333671a41461019f57806336568abe146101ca575b600080fd5b61014461013f366004610e20565b6102e6565b60405190151581526020015b60405180910390f35b61017c610167366004610e4a565b60009081526020819052604090206001015490565b604051908152602001610150565b61019d610198366004610e78565b6102f7565b005b6101b26101ad366004610e4a565b610321565b6040516001600160a01b039091168152602001610150565b61019d6101d8366004610e78565b61032e565b61019d6101eb366004610ea8565b6103b1565b6101446101fe366004610ea8565b61041f565b61019d610211366004610ea8565b61042c565b6101b26104fb565b61019d61022c366004610f68565b610526565b61019d61023f366004610fdd565b61061a565b61019d610252366004611018565b610728565b610144610265366004610e78565b6107e4565b61017c600081565b61019d610280366004611046565b61080d565b6003546101b2906001600160a01b031681565b6005546101b2906001600160a01b031681565b61019d6102b9366004610e78565b610970565b6004546101b2906001600160a01b031681565b61017c6000805160206112c783398151915281565b60006102f182610995565b92915050565b600082815260208190526040902060010154610312816109ca565b61031c83836109d7565b505050565b60006102f1600183610a5b565b6001600160a01b03811633146103a35760405162461bcd60e51b815260206004820152602f60248201527f416363657373436f6e74726f6c3a2063616e206f6e6c792072656e6f756e636560448201526e103937b632b9903337b91039b2b63360891b60648201526084015b60405180910390fd5b6103ad8282610a6e565b5050565b6000805160206112c78339815191526103c9816109ca565b600380546001600160a01b0319166001600160a01b0384169081179091556040519081527f076c0f775003965a7c4de2a3636a258ebd96080e16c9fdef3e267fab57a86c2d906020015b60405180910390a15050565b60006102f1600183610ad3565b6000805160206112c7833981519152610444816109ca565b6001600160a01b0382166104ad5760405162461bcd60e51b815260206004820152602a60248201527f41646472657373206f6620636f6e66696775726174696f6e206d757374206265604482015269103932b8bab4b932b21760b11b606482015260840161039a565b600480546001600160a01b0319166001600160a01b0384169081179091556040519081527f63917b966ba08f88836a237f27084663bd4723bbb43b2baa5077c2f55662346390602001610413565b60006000805160206112c7833981519152610515816109ca565b50506003546001600160a01b031690565b6000805160206112c783398151915261053e816109ca565b610549600188610ad3565b6105655760405162461bcd60e51b815260040161039a906110aa565b60048054604051637c071be360e01b81526001600160a01b0390911691637c071be39161059e918b918b918b918b918b918b9101611142565b600060405180830381600087803b1580156105b857600080fd5b505af11580156105cc573d6000803e3d6000fd5b505050507fd46ccaef3ef72ee4997c7de96faaf10737dda7892b79c3a760495c8025e869f987878787878760405161060996959493929190611142565b60405180910390a150505050505050565b6000805160206112c7833981519152610632816109ca565b61063d600186610ad3565b6106595760405162461bcd60e51b815260040161039a906110aa565b60048054604051637f6d5bf160e01b81526001600160a01b0388811693820193909352602481018790526044810186905260648101859052911690637f6d5bf190608401600060405180830381600087803b1580156106b757600080fd5b505af11580156106cb573d6000803e3d6000fd5b5050604080516001600160a01b038916815260208101889052908101869052606081018590527fb933868e75a08bbfed7ce50d65ac9ad57d2582632fa88dfb580248b2e4fae2a19250608001905060405180910390a15050505050565b6000805160206112c7833981519152610740816109ca565b60405163945d122960e01b81526001600160a01b03838116600483015284169063945d122990602401600060405180830381600087803b15801561078357600080fd5b505af1158015610797573d6000803e3d6000fd5b5050604080516001600160a01b038088168252861660208201527f9737650c7b5e7f4e852fa5e5d37a940f0f98d4479f3001a82df8657153044292935001905060405180910390a1505050565b6000918252602082815260408084206001600160a01b0393909316845291905290205460ff1690565b6000805160206112c7833981519152610825816109ca565b60055460009061083d906001600160a01b0316610af5565b600354600480546040516323c56d0560e21b81529394506001600160a01b0380861694638f15b4149461087b948b948b949283169392169101611187565b600060405180830381600087803b15801561089557600080fd5b505af11580156108a9573d6000803e3d6000fd5b505060048054604051631b0e111360e31b81526001600160a01b03868116938201939093529116925063d87088989150602401600060405180830381600087803b1580156108f657600080fd5b505af115801561090a573d6000803e3d6000fd5b50505050610922816001610b9290919063ffffffff16565b50600354604080516001600160a01b03808516825290921660208301527fb0730790c5d987f4c7c26d30b4db323d33144de678d7870b0e2e10eca812d18f910160405180910390a150505050565b60008281526020819052604090206001015461098b816109ca565b61031c8383610a6e565b60006001600160e01b03198216637965db0b60e01b14806102f157506301ffc9a760e01b6001600160e01b03198316146102f1565b6109d48133610ba7565b50565b6109e182826107e4565b6103ad576000828152602081815260408083206001600160a01b03851684529091529020805460ff19166001179055610a173390565b6001600160a01b0316816001600160a01b0316837f2f8788117e7eff1d82e926ec794901d17c78024a50270940304540a733656f0d60405160405180910390a45050565b6000610a678383610c0b565b9392505050565b610a7882826107e4565b156103ad576000828152602081815260408083206001600160a01b0385168085529252808320805460ff1916905551339285917ff6391f5c32d9c69d2a47ea670b442974b53935d1edc7fd64eb21e047a839171b9190a45050565b6001600160a01b03811660009081526001830160205260408120541515610a67565b6000604051733d602d80600a3d3981f3363d3d373d3d3d363d7360601b81528260601b60148201526e5af43d82803e903d91602b57fd5bf360881b60288201526037816000f09150506001600160a01b038116610b8d5760405162461bcd60e51b8152602060048201526016602482015275115490cc4c4d8dce8818dc99585d194819985a5b195960521b604482015260640161039a565b919050565b6000610a67836001600160a01b038416610c35565b610bb182826107e4565b6103ad57610bc9816001600160a01b03166014610c84565b610bd4836020610c84565b604051602001610be59291906111d1565b60408051601f198184030181529082905262461bcd60e51b825261039a91600401611246565b6000826000018281548110610c2257610c22611259565b9060005260206000200154905092915050565b6000818152600183016020526040812054610c7c575081546001818101845560008481526020808220909301849055845484825282860190935260409020919091556102f1565b5060006102f1565b60606000610c93836002611285565b610c9e90600261129c565b67ffffffffffffffff811115610cb657610cb6610ec5565b6040519080825280601f01601f191660200182016040528015610ce0576020820181803683370190505b509050600360fc1b81600081518110610cfb57610cfb611259565b60200101906001600160f81b031916908160001a905350600f60fb1b81600181518110610d2a57610d2a611259565b60200101906001600160f81b031916908160001a9053506000610d4e846002611285565b610d5990600161129c565b90505b6001811115610dd1576f181899199a1a9b1b9c1cb0b131b232b360811b85600f1660108110610d8d57610d8d611259565b1a60f81b828281518110610da357610da3611259565b60200101906001600160f81b031916908160001a90535060049490941c93610dca816112af565b9050610d5c565b508315610a675760405162461bcd60e51b815260206004820181905260248201527f537472696e67733a20686578206c656e67746820696e73756666696369656e74604482015260640161039a565b600060208284031215610e3257600080fd5b81356001600160e01b031981168114610a6757600080fd5b600060208284031215610e5c57600080fd5b5035919050565b6001600160a01b03811681146109d457600080fd5b60008060408385031215610e8b57600080fd5b823591506020830135610e9d81610e63565b809150509250929050565b600060208284031215610eba57600080fd5b8135610a6781610e63565b634e487b7160e01b600052604160045260246000fd5b600082601f830112610eec57600080fd5b813567ffffffffffffffff80821115610f0757610f07610ec5565b604051601f8301601f19908116603f01168101908282118183101715610f2f57610f2f610ec5565b81604052838152866020858801011115610f4857600080fd5b836020870160208301376000602085830101528094505050505092915050565b60008060008060008060c08789031215610f8157600080fd5b8635610f8c81610e63565b95506020870135945060408701359350606087013592506080870135915060a087013567ffffffffffffffff811115610fc457600080fd5b610fd089828a01610edb565b9150509295509295509295565b60008060008060808587031215610ff357600080fd5b8435610ffe81610e63565b966020860135965060408601359560600135945092505050565b6000806040838503121561102b57600080fd5b823561103681610e63565b91506020830135610e9d81610e63565b6000806040838503121561105957600080fd5b823567ffffffffffffffff8082111561107157600080fd5b61107d86838701610edb565b9350602085013591508082111561109357600080fd5b506110a085828601610edb565b9150509250929050565b60208082526028908201527f436f6c6c656374696f6e3a2054686520636f6c6c656374696f6e20646f65736e60408201526709dd08195e1a5cdd60c21b606082015260800190565b60005b8381101561110d5781810151838201526020016110f5565b50506000910152565b6000815180845261112e8160208601602086016110f2565b601f01601f19169290920160200192915050565b60018060a01b038716815285602082015284604082015283606082015282608082015260c060a0820152600061117b60c0830184611116565b98975050505050505050565b60808152600061119a6080830187611116565b82810360208401526111ac8187611116565b6001600160a01b03958616604085015293909416606090920191909152509392505050565b7f416363657373436f6e74726f6c3a206163636f756e74200000000000000000008152600083516112098160178501602088016110f2565b7001034b99036b4b9b9b4b733903937b6329607d1b601791840191820152835161123a8160288401602088016110f2565b01602801949350505050565b602081526000610a676020830184611116565b634e487b7160e01b600052603260045260246000fd5b634e487b7160e01b600052601160045260246000fd5b80820281158282048414176102f1576102f161126f565b808201808211156102f1576102f161126f565b6000816112be576112be61126f565b50600019019056fe8f257e937a449d287051f1249e0edc3b5d08b547aa4f08807b9ce2a406bcf60fa2646970667358221220b79abe3c727bf0b41249f750e3e7b0804e6588327d01c59f368d050ab6a3b07c64736f6c6343000811003360a06040523060805234801561001457600080fd5b506080516143f861004c60003960008181610f4901528181610f890152818161116d015281816111ad015261123c01526143f86000f3fe60806040526004361061038c5760003560e01c80636352211e116101dc578063a22cb46511610102578063d7b51378116100a0578063ed9d02101161006f578063ed9d021014610b13578063f66375e614610b47578063f72c0d8b14610b68578063fc314e3114610b9c57600080fd5b8063d7b5137814610a71578063df064ad814610a86578063e63ab1e914610aa8578063e985e9c514610aca57600080fd5b8063c1292cc3116100dc578063c1292cc3146109fa578063c87b56dd14610a0f578063d539139314610a2f578063d547741f14610a5157600080fd5b8063a22cb4651461099a578063b80f55c9146109ba578063b88d4fde146109da57600080fd5b806390c9e8571161017a57806396f9f5ca1161014957806396f9f5ca1461092557806398bdf6f5146109525780639e2ec9e41461096a578063a217fddf1461098557600080fd5b806390c9e857146108b057806391d14854146108d0578063945d1229146108f057806395d89b411461091057600080fd5b80637a997ab7116101b65780637a997ab71461081a578063812fedd61461084e5780638456cb591461087b5780638f15b4141461089057600080fd5b80636352211e146107ad5780636970bb0a146107cd57806370a08231146107fa57600080fd5b806331d88c7e116102c15780633de419e91161025f57806352d1902d1161022e57806352d1902d1461073f5780635452b978146107545780635c975abb146107745780635cce77f01461078c57600080fd5b80633de419e9146106d75780633f4ba83a146106f757806342842e0e1461070c5780634f1ef2861461072c57600080fd5b8063372c12b11161029b578063372c12b11461064657806339e899ee146106775780633a855058146106975780633ab6dbac146106b757600080fd5b806331d88c7e146105e657806336568abe146106065780633659cfe61461062657600080fd5b806318160ddd1161032e578063282c51f311610308578063282c51f31461053d5780632863e688146105715780632e25d2a6146105a55780632f2ff15d146105c657600080fd5b806318160ddd146104c857806323b872dd146104ed578063248a9ca31461050d57600080fd5b8063095ea7b31161036a578063095ea7b3146104205780630dfe009b1461044257806312d2e5031461046f578063150b7a021461048f57600080fd5b806301ffc9a71461039157806306fdde03146103c6578063081812fc146103e8575b600080fd5b34801561039d57600080fd5b506103b16103ac36600461357c565b610bca565b60405190151581526020015b60405180910390f35b3480156103d257600080fd5b506103db610bdb565b6040516103bd91906135e9565b3480156103f457600080fd5b506104086104033660046135fc565b610c6d565b6040516001600160a01b0390911681526020016103bd565b34801561042c57600080fd5b5061044061043b366004613631565b610c94565b005b34801561044e57600080fd5b506101655461045d9060ff1681565b60405160ff90911681526020016103bd565b34801561047b57600080fd5b5061044061048a36600461365b565b610dae565b34801561049b57600080fd5b506104af6104aa366004613769565b610e04565b6040516001600160e01b031990911681526020016103bd565b3480156104d457600080fd5b506104df6101665481565b6040519081526020016103bd565b3480156104f957600080fd5b506104406105083660046137d0565b610e15565b34801561051957600080fd5b506104df6105283660046135fc565b60009081526097602052604090206001015490565b34801561054957600080fd5b506104df7f3c11d16cbaffd01df69ce1c404f6340ee057498f5f00246190ea54220576a84881565b34801561057d57600080fd5b506104df7fb0365fbbf5213c3d39c9c122d53c3ecf9397ffc3cdc2d2834dd1d4581e300fa481565b3480156105b157600080fd5b5061015f54610408906001600160a01b031681565b3480156105d257600080fd5b506104406105e136600461380c565b610e46565b3480156105f257600080fd5b5061044061060136600461365b565b610e6b565b34801561061257600080fd5b5061044061062136600461380c565b610ec1565b34801561063257600080fd5b50610440610641366004613838565b610f3f565b34801561065257600080fd5b506103b1610661366004613838565b6101676020526000908152604090205460ff1681565b34801561068357600080fd5b50610440610692366004613838565b61101e565b3480156106a357600080fd5b506104406106b2366004613952565b61108b565b3480156106c357600080fd5b506101655461045d90610100900460ff1681565b3480156106e357600080fd5b506104df6106f2366004613631565b6110f6565b34801561070357600080fd5b50610440611128565b34801561071857600080fd5b506104406107273660046137d0565b611148565b61044061073a3660046139c8565b611163565b34801561074b57600080fd5b506104df61122f565b34801561076057600080fd5b5061044061076f366004613952565b6112e2565b34801561078057600080fd5b5060c95460ff166103b1565b34801561079857600080fd5b5061016054610408906001600160a01b031681565b3480156107b957600080fd5b506104086107c83660046135fc565b61138f565b3480156107d957600080fd5b506107ed6107e8366004613838565b6113ef565b6040516103bd9190613a15565b34801561080657600080fd5b506104df610815366004613838565b61145c565b34801561082657600080fd5b506104df7fdc72ed553f2544c34465af23b847953efeb813428162d767f9ba5f4013be676081565b34801561085a57600080fd5b5061086e6108693660046135fc565b6114e2565b6040516103bd9190613a93565b34801561088757600080fd5b506104406115c1565b34801561089c57600080fd5b506104406108ab366004613aa6565b6115e1565b3480156108bc57600080fd5b506104406108cb366004613838565b611852565b3480156108dc57600080fd5b506103b16108eb36600461380c565b611881565b3480156108fc57600080fd5b5061044061090b366004613838565b6118ac565b34801561091c57600080fd5b506103db611908565b34801561093157600080fd5b50610945610940366004613838565b611917565b6040516103bd9190613b2a565b34801561095e57600080fd5b50610162546104df9081565b34801561097657600080fd5b50610168546103b19060ff1681565b34801561099157600080fd5b506104df600081565b3480156109a657600080fd5b506104406109b5366004613b9a565b611aca565b3480156109c657600080fd5b506104406109d5366004613bd1565b611ad5565b3480156109e657600080fd5b506104406109f5366004613769565b611b6d565b348015610a0657600080fd5b506104df611ba5565b348015610a1b57600080fd5b506103db610a2a3660046135fc565b611bb6565b348015610a3b57600080fd5b506104df6000805160206143a383398151915281565b348015610a5d57600080fd5b50610440610a6c36600461380c565b611c5c565b348015610a7d57600080fd5b50610440611c81565b348015610a9257600080fd5b506104df60008051602061433c83398151915281565b348015610ab457600080fd5b506104df60008051602061435c83398151915281565b348015610ad657600080fd5b506103b1610ae5366004613c61565b6001600160a01b039182166000908152606a6020908152604080832093909416825291909152205460ff1690565b348015610b1f57600080fd5b506104df7fe3868aa81f1dee2778e3a9355284b86ab734ec29bdd8432cb5e4b529a75d85ee81565b348015610b5357600080fd5b5061016154610408906001600160a01b031681565b348015610b7457600080fd5b506104df7f189ab7a9244df0848122154315af71fe140f3db0fe014031783b0946b8c9d2e381565b348015610ba857600080fd5b50610bbc610bb73660046135fc565b611d10565b6040516103bd929190613c8b565b6000610bd582611ddc565b92915050565b606060658054610bea90613cb9565b80601f0160208091040260200160405190810160405280929190818152602001828054610c1690613cb9565b8015610c635780601f10610c3857610100808354040283529160200191610c63565b820191906000526020600020905b815481529060010190602001808311610c4657829003601f168201915b5050505050905090565b6000610c7882611e01565b506000908152606960205260409020546001600160a01b031690565b6000610c9f8261138f565b9050806001600160a01b0316836001600160a01b031603610d115760405162461bcd60e51b815260206004820152602160248201527f4552433732313a20617070726f76616c20746f2063757272656e74206f776e656044820152603960f91b60648201526084015b60405180910390fd5b336001600160a01b0382161480610d2d5750610d2d8133610ae5565b610d9f5760405162461bcd60e51b815260206004820152603e60248201527f4552433732313a20617070726f76652063616c6c6572206973206e6f7420746f60448201527f6b656e206f776e6572206e6f7220617070726f76656420666f7220616c6c00006064820152608401610d08565b610da98383611e60565b505050565b6000610db981611ece565b610165805460ff191660ff84169081179091556040519081527f3067f756ef0c6dc7e55dc7c260ac3d32c0c12a7f9d8d379cf3d426de0de5f720906020015b60405180910390a15050565b630a85bd0160e11b5b949350505050565b610e1f3382611ed8565b610e3b5760405162461bcd60e51b8152600401610d0890613cf3565b610da9838383611f56565b600082815260976020526040902060010154610e6181611ece565b610da98383612003565b6000610e7681611ece565b610165805461ff00191661010060ff8516908102919091179091556040519081527fef1fcb96cd32ad3722e8c48c9ce4a8839f46b7a3df9fa74521dcc51852a787ef90602001610df8565b6001600160a01b0381163314610f315760405162461bcd60e51b815260206004820152602f60248201527f416363657373436f6e74726f6c3a2063616e206f6e6c792072656e6f756e636560448201526e103937b632b9903337b91039b2b63360891b6064820152608401610d08565b610f3b8282612089565b5050565b6001600160a01b037f0000000000000000000000000000000000000000000000000000000000000000163003610f875760405162461bcd60e51b8152600401610d0890613d41565b7f00000000000000000000000000000000000000000000000000000000000000006001600160a01b0316610fd060008051602061431c833981519152546001600160a01b031690565b6001600160a01b031614610ff65760405162461bcd60e51b8152600401610d0890613d8d565b610fff816120f0565b6040805160008082526020820190925261101b9183919061211a565b50565b60008051602061433c83398151915261103681611ece565b6001600160a01b03821660008181526101676020908152604091829020805460ff1916600117905590519182527f3990e3e141b903f4f5602428874be692206642a653b416f336d965e2f04813ce9101610df8565b6000805160206143a38339815191526110a381611ece565b60006110af8686612285565b90507f2609cec502226d9248723f9f99b01b566f8814c3fa999e6dfb9427a68770cf4c848487846040516110e69493929190613e66565b60405180910390a1505050505050565b610163602052816000526040600020818154811061111357600080fd5b90600052602060002001600091509150505481565b60008051602061435c83398151915261114081611ece565b61101b612568565b610da983838360405180602001604052806000815250611b6d565b6001600160a01b037f00000000000000000000000000000000000000000000000000000000000000001630036111ab5760405162461bcd60e51b8152600401610d0890613d41565b7f00000000000000000000000000000000000000000000000000000000000000006001600160a01b03166111f460008051602061431c833981519152546001600160a01b031690565b6001600160a01b03161461121a5760405162461bcd60e51b8152600401610d0890613d8d565b611223826120f0565b610f3b8282600161211a565b6000306001600160a01b037f000000000000000000000000000000000000000000000000000000000000000016146112cf5760405162461bcd60e51b815260206004820152603860248201527f555550535570677261646561626c653a206d757374206e6f742062652063616c60448201527f6c6564207468726f7567682064656c656761746563616c6c00000000000000006064820152608401610d08565b5060008051602061431c83398151915290565b610160546001600160a01b0316331461133d5760405162461bcd60e51b815260206004820152601f60248201527f4e6f742062652063616c6c65642066726f6d20446161702043726561746f72006044820152606401610d08565b60006113498585612285565b90507f2a87df94335530e30df08ee1b63c397ade93ebb2d0b92840bcb8733118bf20bd838386846040516113809493929190613e66565b60405180910390a15050505050565b6000818152606760205260408120546001600160a01b031680610bd55760405162461bcd60e51b8152602060048201526018602482015277115490cdcc8c4e881a5b9d985b1a59081d1bdad95b88125160421b6044820152606401610d08565b6001600160a01b03811660009081526101636020908152604080832080548251818502810185019093528083526060949383018282801561144f57602002820191906000526020600020905b81548152602001906001019080831161143b575b5093979650505050505050565b60006001600160a01b0382166114c65760405162461bcd60e51b815260206004820152602960248201527f4552433732313a2061646472657373207a65726f206973206e6f7420612076616044820152683634b21037bbb732b960b91b6064820152608401610d08565b506001600160a01b031660009081526068602052604090205490565b6114ea6134a1565b60008281526101646020908152604091829020825160a08101845281549381019384526001820154606082015260028201546080820152928352600381018054919284019161153890613cb9565b80601f016020809104026020016040519081016040528092919081815260200182805461156490613cb9565b80156115b15780601f10611586576101008083540402835291602001916115b1565b820191906000526020600020905b81548152906001019060200180831161159457829003601f168201915b5050505050815250509050919050565b60008051602061435c8339815191526115d981611ece565b61101b6125ba565b600054610100900460ff16158080156116015750600054600160ff909116105b8061161b5750303b15801561161b575060005460ff166001145b61167e5760405162461bcd60e51b815260206004820152602e60248201527f496e697469616c697a61626c653a20636f6e747261637420697320616c72656160448201526d191e481a5b9a5d1a585b1a5e995960921b6064820152608401610d08565b6000805460ff1916600117905580156116a1576000805461ff0019166101001790555b6116ab85856125f7565b6116b3612628565b6116bb612651565b6116c3612628565b6116ce600033612680565b6116e660008051602061435c83398151915233612680565b6117107f189ab7a9244df0848122154315af71fe140f3db0fe014031783b0946b8c9d2e333612680565b61172860008051602061433c83398151915233612680565b6117406000805160206143a383398151915233612680565b61176a7fe3868aa81f1dee2778e3a9355284b86ab734ec29bdd8432cb5e4b529a75d85ee33612680565b6117947fdc72ed553f2544c34465af23b847953efeb813428162d767f9ba5f4013be676033612680565b61016080546001600160a01b038086166001600160a01b0319928316179092556101618054928516929091169190911790556101658054610a0a61ffff199091161790556305f5e1006101665533600090815261016760205260409020805460ff1990811660011790915561016880549091169055801561184b576000805461ff0019169055604051600181527f7f26b83ff96e1f2b6a682f133852f6798a09c465da95921460cefb384740249890602001611380565b5050505050565b600061185d81611ece565b5061016080546001600160a01b0319166001600160a01b0392909216919091179055565b60009182526097602090815260408084206001600160a01b0393909316845291905290205460ff1690565b60006118b781611ece565b6118cf6000805160206143a383398151915283612680565b6040516001600160a01b03831681527f410848f792df3b0316c71a9b73a68187a0904bce4f19b64cead391caf0fd895c90602001610df8565b606060668054610bea90613cb9565b6001600160a01b0381166000908152610163602052604081208054606092906001600160401b0381111561194d5761194d61367e565b60405190808252806020026020018201604052801561198657816020015b6119736134a1565b81526020019060019003908161196b5790505b50905060005b8254811015611ac25761016460008483815481106119ac576119ac613e9b565b906000526020600020015481526020019081526020016000206040518060400160405290816000820160405180606001604052908160008201548152602001600182015481526020016002820154815250508152602001600382018054611a1290613cb9565b80601f0160208091040260200160405190810160405280929190818152602001828054611a3e90613cb9565b8015611a8b5780601f10611a6057610100808354040283529160200191611a8b565b820191906000526020600020905b815481529060010190602001808311611a6e57829003601f168201915b505050505081525050828281518110611aa657611aa6613e9b565b602002602001018190525080611abb90613ec7565b905061198c565b509392505050565b610f3b33838361268a565b7f3c11d16cbaffd01df69ce1c404f6340ee057498f5f00246190ea54220576a848611aff81611ece565b60005b8251811015611b3d57611b2d838281518110611b2057611b20613e9b565b6020026020010151612758565b611b3681613ec7565b9050611b02565b507fe37f2f6ac290750880201857e65e5a9c7b41b0d3f69e0cde39e18e0871cd644982604051610df89190613a15565b611b773383611ed8565b611b935760405162461bcd60e51b8152600401610d0890613cf3565b611b9f848484846127ff565b50505050565b6000611bb16101625490565b905090565b600081815261016460205260409020600301805460609190611bd790613cb9565b80601f0160208091040260200160405190810160405280929190818152602001828054611c0390613cb9565b8015611c505780601f10611c2557610100808354040283529160200191611c50565b820191906000526020600020905b815481529060010190602001808311611c3357829003601f168201915b50505050509050919050565b600082815260976020526040902060010154611c7781611ece565b610da98383612089565b60008051602061433c833981519152611c9981611ece565b6101685460ff168015611cb657610168805460ff19169055611cc5565b610168805460ff191660011790555b6101685460408051831515815260ff9092168015156020840152917fecd464e15309c10db128b5bfb929470b002591bad90de1d6cc6a5e83816caba4910160405180910390a1505050565b61016460209081526000918252604091829020825160608101845281548152600182015492810192909252600281015492820192909252600382018054919291611d5990613cb9565b80601f0160208091040260200160405190810160405280929190818152602001828054611d8590613cb9565b8015611dd25780601f10611da757610100808354040283529160200191611dd2565b820191906000526020600020905b815481529060010190602001808311611db557829003601f168201915b5050505050905082565b60006001600160e01b03198216637965db0b60e01b1480610bd55750610bd582612832565b6000818152606760205260409020546001600160a01b031661101b5760405162461bcd60e51b8152602060048201526018602482015277115490cdcc8c4e881a5b9d985b1a59081d1bdad95b88125160421b6044820152606401610d08565b600081815260696020526040902080546001600160a01b0319166001600160a01b0384169081179091558190611e958261138f565b6001600160a01b03167f8c5be1e5ebec7d5bd14f71427d1e84f3dd0314c0f7b2291e5b200ac8c7c3b92560405160405180910390a45050565b61101b8133612882565b600080611ee48361138f565b9050806001600160a01b0316846001600160a01b03161480611f2b57506001600160a01b038082166000908152606a602090815260408083209388168352929052205460ff165b80610e0d5750836001600160a01b0316611f4484610c6d565b6001600160a01b031614949350505050565b6101685460ff161515600003611ff8576001600160a01b0382166000908152610167602052604090205460ff16151560011480611fac57506001600160a01b0383166000908152610167602052604090205460ff165b611ff85760405162461bcd60e51b815260206004820181905260248201527f4e6f7420737570706f727420746f207472616e73666572206469726563746c796044820152606401610d08565b610da98383836128e6565b61200d8282611881565b610f3b5760008281526097602090815260408083206001600160a01b03851684529091529020805460ff191660011790556120453390565b6001600160a01b0316816001600160a01b0316837f2f8788117e7eff1d82e926ec794901d17c78024a50270940304540a733656f0d60405160405180910390a45050565b6120938282611881565b15610f3b5760008281526097602090815260408083206001600160a01b0385168085529252808320805460ff1916905551339285917ff6391f5c32d9c69d2a47ea670b442974b53935d1edc7fd64eb21e047a839171b9190a45050565b7f189ab7a9244df0848122154315af71fe140f3db0fe014031783b0946b8c9d2e3610f3b81611ece565b7f4910fdfa16fed3260ed0e7147f7cc6da11a60208b5b9406d12a635614ffd91435460ff161561214d57610da983612a8d565b826001600160a01b03166352d1902d6040518163ffffffff1660e01b8152600401602060405180830381865afa9250505080156121a7575060408051601f3d908101601f191682019092526121a491810190613ee0565b60015b61220a5760405162461bcd60e51b815260206004820152602e60248201527f45524331393637557067726164653a206e657720696d706c656d656e7461746960448201526d6f6e206973206e6f74205555505360901b6064820152608401610d08565b60008051602061431c83398151915281146122795760405162461bcd60e51b815260206004820152602960248201527f45524331393637557067726164653a20756e737570706f727465642070726f786044820152681a58589b195555525160ba1b6064820152608401610d08565b50610da9838383612b29565b606060008351116122cb5760405162461bcd60e51b815260206004820152601060248201526f139bc81d1bdad95b881d1bc81b5a5b9d60821b6044820152606401610d08565b61016554835160ff909116101561232f5760405162461bcd60e51b815260206004820152602260248201527f4d6178696d756d20746f6b656e7320696e206f6e65206d696e74207265616368604482015261195960f21b6064820152608401610d08565b610166548351610162546123439190613ef9565b11156123915760405162461bcd60e51b815260206004820152601b60248201527f546f74616c20737570706c79206f66204e4654207265616368656400000000006044820152606401610d08565b60005b835181101561247e576101615484516001600160a01b039091169063e23d3d179030908790859081106123c9576123c9613e9b565b60200260200101516040518363ffffffff1660e01b81526004016123ee929190613f0c565b602060405180830381865afa15801561240b573d6000803e3d6000fd5b505050506040513d601f19601f8201168201806040525081019061242f9190613f3d565b61246c5760405162461bcd60e51b815260206004820152600e60248201526d496e76616c69642072617269747960901b6044820152606401610d08565b8061247681613ec7565b915050612394565b50600083516001600160401b0381111561249a5761249a61367e565b6040519080825280602002602001820160405280156124d357816020015b6124c06134dd565b8152602001906001900390816124b85790505b50905060005b8451811015611ac2576000612507858784815181106124fa576124fa613e9b565b6020026020010151612b4e565b9050604051806040016040528082815260200187848151811061252c5761252c613e9b565b602002602001015181525083838151811061254957612549613e9b565b602002602001018190525050808061256090613ec7565b9150506124d9565b612570612c2d565b60c9805460ff191690557f5db9ee0a495bf2e6ff9c91a7834c1ba4fdd244a5e8aa4e537bd38aeae4b073aa335b6040516001600160a01b03909116815260200160405180910390a1565b6125c2612c76565b60c9805460ff191660011790557f62e78cea01bee320cd4e420270b5ea74000d11b0c9f74754ebdbfc544b05a25861259d3390565b600054610100900460ff1661261e5760405162461bcd60e51b8152600401610d0890613f5a565b610f3b8282612cbc565b600054610100900460ff1661264f5760405162461bcd60e51b8152600401610d0890613f5a565b565b600054610100900460ff166126785760405162461bcd60e51b8152600401610d0890613f5a565b61264f612cfc565b610f3b8282612003565b816001600160a01b0316836001600160a01b0316036126eb5760405162461bcd60e51b815260206004820152601960248201527f4552433732313a20617070726f766520746f2063616c6c6572000000000000006044820152606401610d08565b6001600160a01b038381166000818152606a6020908152604080832094871680845294825291829020805460ff191686151590811790915591519182527f17307eab39ab6107e8899845ad3d59bd9653f200f220920489ca2b5937696c31910160405180910390a3505050565b60006127638261138f565b905061277181600084612d2f565b61277c600083611e60565b6001600160a01b03811660009081526068602052604081208054600192906127a5908490613fa5565b909155505060008281526067602052604080822080546001600160a01b0319169055518391906001600160a01b038416907fddf252ad1be2c89b69c2b068fc378daa952ba7f163c4a11628f55a4df523b3ef908390a45050565b61280a848484611f56565b61281684848484612e80565b611b9f5760405162461bcd60e51b8152600401610d0890613fb8565b60006001600160e01b031982166380ac58cd60e01b148061286357506001600160e01b03198216635b5e139f60e01b145b80610bd557506301ffc9a760e01b6001600160e01b0319831614610bd5565b61288c8282611881565b610f3b576128a4816001600160a01b03166014612f7e565b6128af836020612f7e565b6040516020016128c092919061400a565b60408051601f198184030181529082905262461bcd60e51b8252610d08916004016135e9565b826001600160a01b03166128f98261138f565b6001600160a01b03161461295d5760405162461bcd60e51b815260206004820152602560248201527f4552433732313a207472616e736665722066726f6d20696e636f72726563742060448201526437bbb732b960d91b6064820152608401610d08565b6001600160a01b0382166129bf5760405162461bcd60e51b8152602060048201526024808201527f4552433732313a207472616e7366657220746f20746865207a65726f206164646044820152637265737360e01b6064820152608401610d08565b6129ca838383612d2f565b6129d5600082611e60565b6001600160a01b03831660009081526068602052604081208054600192906129fe908490613fa5565b90915550506001600160a01b0382166000908152606860205260408120805460019290612a2c908490613ef9565b909155505060008181526067602052604080822080546001600160a01b0319166001600160a01b0386811691821790925591518493918716917fddf252ad1be2c89b69c2b068fc378daa952ba7f163c4a11628f55a4df523b3ef91a4505050565b6001600160a01b0381163b612afa5760405162461bcd60e51b815260206004820152602d60248201527f455243313936373a206e657720696d706c656d656e746174696f6e206973206e60448201526c1bdd08184818dbdb9d1c9858dd609a1b6064820152608401610d08565b60008051602061431c83398151915280546001600160a01b0319166001600160a01b0392909216919091179055565b612b3283613120565b600082511180612b3f5750805b15610da957611b9f8383613160565b6000612b5f61016280546001019055565b6000612b6b6101625490565b9050612b8581846000015185602001518660400151613254565b612b8f848261331a565b612b976134a1565b838152612ba382611bb6565b602080830191825260008481526101648252604090819020845180518255928301516001820155910151600282015590518291906003820190612be690826140c5565b509050507f3aa7ac72d85f75e4144081288213b434bd816c22d468d1006fa768a4d53a60eb858383604051612c1d93929190614184565b60405180910390a1509392505050565b60c95460ff1661264f5760405162461bcd60e51b815260206004820152601460248201527314185d5cd8589b194e881b9bdd081c185d5cd95960621b6044820152606401610d08565b60c95460ff161561264f5760405162461bcd60e51b815260206004820152601060248201526f14185d5cd8589b194e881c185d5cd95960821b6044820152606401610d08565b600054610100900460ff16612ce35760405162461bcd60e51b8152600401610d0890613f5a565b6065612cef83826140c5565b506066610da982826140c5565b600054610100900460ff16612d235760405162461bcd60e51b8152600401610d0890613f5a565b60c9805460ff19169055565b6001600160a01b03831615612e15576001600160a01b03831660009081526101636020526040812090805b8254811015612da05783838281548110612d7657612d76613e9b565b906000526020600020015403612d8e57809150612da0565b80612d9881613ec7565b915050612d5a565b5081548290612db190600190613fa5565b81548110612dc157612dc1613e9b565b9060005260206000200154828281548110612dde57612dde613e9b565b906000526020600020018190555081805480612dfc57612dfc6141ab565b6001900381819060005260206000200160009055905550505b6001600160a01b038216612e515760008181526101646020526040812081815560018101829055600281018290559061184b6003830182613518565b6001600160a01b0391909116600090815261016360209081526040822080546001810182559083529120015550565b60006001600160a01b0384163b15612f7657604051630a85bd0160e11b81526001600160a01b0385169063150b7a0290612ec49033908990889088906004016141c1565b6020604051808303816000875af1925050508015612eff575060408051601f3d908101601f19168201909252612efc918101906141fe565b60015b612f5c573d808015612f2d576040519150601f19603f3d011682016040523d82523d6000602084013e612f32565b606091505b508051600003612f545760405162461bcd60e51b8152600401610d0890613fb8565b805181602001fd5b6001600160e01b031916630a85bd0160e11b149050610e0d565b506001610e0d565b60606000612f8d83600261421b565b612f98906002613ef9565b6001600160401b03811115612faf57612faf61367e565b6040519080825280601f01601f191660200182016040528015612fd9576020820181803683370190505b509050600360fc1b81600081518110612ff457612ff4613e9b565b60200101906001600160f81b031916908160001a905350600f60fb1b8160018151811061302357613023613e9b565b60200101906001600160f81b031916908160001a905350600061304784600261421b565b613052906001613ef9565b90505b60018111156130ca576f181899199a1a9b1b9c1cb0b131b232b360811b85600f166010811061308657613086613e9b565b1a60f81b82828151811061309c5761309c613e9b565b60200101906001600160f81b031916908160001a90535060049490941c936130c381614232565b9050613055565b5083156131195760405162461bcd60e51b815260206004820181905260248201527f537472696e67733a20686578206c656e67746820696e73756666696369656e746044820152606401610d08565b9392505050565b61312981612a8d565b6040516001600160a01b038216907fbc7cd75a20ee27fd9adebab32041f755214dbc6bffa90cc0225b39da2e5c2d3b90600090a250565b60606001600160a01b0383163b6131c85760405162461bcd60e51b815260206004820152602660248201527f416464726573733a2064656c65676174652063616c6c20746f206e6f6e2d636f6044820152651b9d1c9858dd60d21b6064820152608401610d08565b600080846001600160a01b0316846040516131e39190614249565b600060405180830381855af49150503d806000811461321e576040519150601f19603f3d011682016040523d82523d6000602084013e613223565b606091505b509150915061324b828260405180606001604052806027815260200161437c60279139613468565b95945050505050565b610161546040516339bb1adf60e01b81526004810185905260248101849052604481018390526000916001600160a01b0316906339bb1adf90606401600060405180830381865afa1580156132ad573d6000803e3d6000fd5b505050506040513d6000823e601f3d908101601f191682016040526132d59190810190614265565b9050806040516020016132e891906142d2565b60408051601f198184030181529181526000878152610164602052206003019061331290826140c5565b505050505050565b6001600160a01b0382166133705760405162461bcd60e51b815260206004820181905260248201527f4552433732313a206d696e7420746f20746865207a65726f20616464726573736044820152606401610d08565b6000818152606760205260409020546001600160a01b0316156133d55760405162461bcd60e51b815260206004820152601c60248201527f4552433732313a20746f6b656e20616c7265616479206d696e746564000000006044820152606401610d08565b6133e160008383612d2f565b6001600160a01b038216600090815260686020526040812080546001929061340a908490613ef9565b909155505060008181526067602052604080822080546001600160a01b0319166001600160a01b03861690811790915590518392907fddf252ad1be2c89b69c2b068fc378daa952ba7f163c4a11628f55a4df523b3ef908290a45050565b60608315613477575081613119565b8251156134875782518084602001fd5b8160405162461bcd60e51b8152600401610d0891906135e9565b60405180604001604052806134d060405180606001604052806000815260200160008152602001600081525090565b8152602001606081525090565b60405180604001604052806000815260200161351360405180606001604052806000815260200160008152602001600081525090565b905290565b50805461352490613cb9565b6000825580601f10613534575050565b601f01602090049060005260206000209081019061101b91905b80821115613562576000815560010161354e565b5090565b6001600160e01b03198116811461101b57600080fd5b60006020828403121561358e57600080fd5b813561311981613566565b60005b838110156135b457818101518382015260200161359c565b50506000910152565b600081518084526135d5816020860160208601613599565b601f01601f19169290920160200192915050565b60208152600061311960208301846135bd565b60006020828403121561360e57600080fd5b5035919050565b80356001600160a01b038116811461362c57600080fd5b919050565b6000806040838503121561364457600080fd5b61364d83613615565b946020939093013593505050565b60006020828403121561366d57600080fd5b813560ff8116811461311957600080fd5b634e487b7160e01b600052604160045260246000fd5b604051606081016001600160401b03811182821017156136b6576136b661367e565b60405290565b604051601f8201601f191681016001600160401b03811182821017156136e4576136e461367e565b604052919050565b60006001600160401b038211156137055761370561367e565b50601f01601f191660200190565b600082601f83011261372457600080fd5b8135613737613732826136ec565b6136bc565b81815284602083860101111561374c57600080fd5b816020850160208301376000918101602001919091529392505050565b6000806000806080858703121561377f57600080fd5b61378885613615565b935061379660208601613615565b92506040850135915060608501356001600160401b038111156137b857600080fd5b6137c487828801613713565b91505092959194509250565b6000806000606084860312156137e557600080fd5b6137ee84613615565b92506137fc60208501613615565b9150604084013590509250925092565b6000806040838503121561381f57600080fd5b8235915061382f60208401613615565b90509250929050565b60006020828403121561384a57600080fd5b61311982613615565b60006001600160401b0382111561386c5761386c61367e565b5060051b60200190565b600082601f83011261388757600080fd5b8135602061389761373283613853565b828152606092830285018201928282019190878511156138b657600080fd5b8387015b858110156138fd5781818a0312156138d25760008081fd5b6138da613694565b8135815285820135868201526040808301359082015284529284019281016138ba565b5090979650505050505050565b60008083601f84011261391c57600080fd5b5081356001600160401b0381111561393357600080fd5b60208301915083602082850101111561394b57600080fd5b9250929050565b6000806000806060858703121561396857600080fd5b84356001600160401b038082111561397f57600080fd5b61398b88838901613876565b955061399960208801613615565b945060408701359150808211156139af57600080fd5b506139bc8782880161390a565b95989497509550505050565b600080604083850312156139db57600080fd5b6139e483613615565b915060208301356001600160401b038111156139ff57600080fd5b613a0b85828601613713565b9150509250929050565b6020808252825182820181905260009190848201906040850190845b81811015613a4d57835183529284019291840191600101613a31565b50909695505050505050565b613a788282518051825260208082015190830152604090810151910152565b6000602082015160806060850152610e0d60808501826135bd565b6020815260006131196020830184613a59565b60008060008060808587031215613abc57600080fd5b84356001600160401b0380821115613ad357600080fd5b613adf88838901613713565b95506020870135915080821115613af557600080fd5b50613b0287828801613713565b935050613b1160408601613615565b9150613b1f60608601613615565b905092959194509250565b6000602080830181845280855180835260408601915060408160051b870101925083870160005b82811015613b7f57603f19888603018452613b6d858351613a59565b94509285019290850190600101613b51565b5092979650505050505050565b801515811461101b57600080fd5b60008060408385031215613bad57600080fd5b613bb683613615565b91506020830135613bc681613b8c565b809150509250929050565b60006020808385031215613be457600080fd5b82356001600160401b03811115613bfa57600080fd5b8301601f81018513613c0b57600080fd5b8035613c1961373282613853565b81815260059190911b82018301908381019087831115613c3857600080fd5b928401925b82841015613c5657833582529284019290840190613c3d565b979650505050505050565b60008060408385031215613c7457600080fd5b613c7d83613615565b915061382f60208401613615565b825181526020808401519082015260408084015190820152608060608201526000610e0d60808301846135bd565b600181811c90821680613ccd57607f821691505b602082108103613ced57634e487b7160e01b600052602260045260246000fd5b50919050565b6020808252602e908201527f4552433732313a2063616c6c6572206973206e6f7420746f6b656e206f776e6560408201526d1c881b9bdc88185c1c1c9bdd995960921b606082015260800190565b6020808252602c908201527f46756e6374696f6e206d7573742062652063616c6c6564207468726f7567682060408201526b19195b1959d85d1958d85b1b60a21b606082015260800190565b6020808252602c908201527f46756e6374696f6e206d7573742062652063616c6c6564207468726f7567682060408201526b6163746976652070726f787960a01b606082015260800190565b81835281816020850137506000828201602090810191909152601f909101601f19169091010190565b600081518084526020808501945080840160005b83811015613e5b57815180518852830151613e47848901828051825260208082015190830152604090810151910152565b506080969096019590820190600101613e16565b509495945050505050565b606081526000613e7a606083018688613dd9565b6001600160a01b03851660208401528281036040840152613c568185613e02565b634e487b7160e01b600052603260045260246000fd5b634e487b7160e01b600052601160045260246000fd5b600060018201613ed957613ed9613eb1565b5060010190565b600060208284031215613ef257600080fd5b5051919050565b80820180821115610bd557610bd5613eb1565b6001600160a01b03831681526080810161311960208301848051825260208082015190830152604090810151910152565b600060208284031215613f4f57600080fd5b815161311981613b8c565b6020808252602b908201527f496e697469616c697a61626c653a20636f6e7472616374206973206e6f74206960408201526a6e697469616c697a696e6760a81b606082015260800190565b81810381811115610bd557610bd5613eb1565b60208082526032908201527f4552433732313a207472616e7366657220746f206e6f6e20455243373231526560408201527131b2b4bb32b91034b6b83632b6b2b73a32b960711b606082015260800190565b7f416363657373436f6e74726f6c3a206163636f756e7420000000000000000000815260008351614042816017850160208801613599565b7001034b99036b4b9b9b4b733903937b6329607d1b6017918401918201528351614073816028840160208801613599565b01602801949350505050565b601f821115610da957600081815260208120601f850160051c810160208610156140a65750805b601f850160051c820191505b81811015613312578281556001016140b2565b81516001600160401b038111156140de576140de61367e565b6140f2816140ec8454613cb9565b8461407f565b602080601f831160018114614127576000841561410f5750858301515b600019600386901b1c1916600185901b178555613312565b600085815260208120601f198616915b8281101561415657888601518255948401946001909101908401614137565b50858210156141745787850151600019600388901b60f8161c191681555b5050505050600190811b01905550565b60018060a01b038416815282602082015260606040820152600061324b6060830184613a59565b634e487b7160e01b600052603160045260246000fd5b6001600160a01b03858116825284166020820152604081018390526080606082018190526000906141f4908301846135bd565b9695505050505050565b60006020828403121561421057600080fd5b815161311981613566565b8082028115828204841417610bd557610bd5613eb1565b60008161424157614241613eb1565b506000190190565b6000825161425b818460208701613599565b9190910192915050565b60006020828403121561427757600080fd5b81516001600160401b0381111561428d57600080fd5b8201601f8101841361429e57600080fd5b80516142ac613732826136ec565b8181528560208385010111156142c157600080fd5b61324b826020830160208601613599565b6768747470733a2f2f60c01b8152600082516142f5816008850160208701613599565b6e2e697066732e7733732e6c696e6b2f60881b600893909101928301525060170191905056fe360894a13ba1a3210667c828492db98dca3e2076cc3735a920a3ca505d382bbc22c69ab406805e70d07fb1a6502af760601d3b977beadb295a9d76d5852e16a365d7a28e3265b37a6474929f336521b332c1681b933f6cb9f3376673440d862a416464726573733a206c6f772d6c6576656c2064656c65676174652063616c6c206661696c65649f2df0fed2c77648de5860a4cc508cd0818c85b8b8a1ab4ceeef8d981c8956a6a2646970667358221220cab47088296b48a2d26f5c575ea704d89036f6ac92da445f14d7d60a81a4c8da64736f6c63430008110033",
    "immutableReferences": {},
    "source": "// SPDX-License-Identifier: MIT\npragma solidity ^0.8.2;\n\nimport \"@openzeppelin/contracts/token/ERC20/IERC20.sol\";\nimport \"@openzeppelin/contracts/access/AccessControl.sol\";\nimport {Clones} from \"@openzeppelin/contracts/proxy/Clones.sol\";\nimport \"@openzeppelin/contracts/utils/structs/EnumerableSet.sol\";\nimport \"./CharacterToken.sol\";\nimport './interfaces/INftConfigurations.sol';\n\ncontract KatanaNftFactory is AccessControl {\n\n    using EnumerableSet for EnumerableSet.AddressSet;\n\n    event CreateNftCollection(\n        address nftAddress,\n        address dappCreatorAddress\n    );\n    event SetDappCreator(address newDappCreator);\n    event SetConfiguration(address newConfiguration);\n    event ConfigOne(address _nftCollection, uint256 _rarity, uint256 _meshIndex, uint256 _price, uint256 _meshMaterial, string _cid);\n    event ConfigMesh(address _nftCollection, uint256 _rarity, uint256 _meshIndex, uint256 _price);\n\n    event SetNewMinterRole(address nftCollection, address newMinter);\n\n    bytes32 public constant IMPLEMENTATION_ROLE = keccak256(\"IMPLEMENTATION_ROLE\");\n\n    // List of NFT collections\n    EnumerableSet.AddressSet private nftCollectionsList;\n\n    // Wrapper Creator address: using for calling from dapp\n    address public dappCreatorAddress;\n\n    // This contract config metadata for all collections\n    INftConfigurations public nftConfigurations;\n\n    // implementAddress\n    address public implementationAddress;\n\n    constructor(address _dappCreatorAddress, INftConfigurations _nftConfigurations) {\n\n        dappCreatorAddress = _dappCreatorAddress;\n\n        nftConfigurations = _nftConfigurations;\n\n        implementationAddress = address(new CharacterToken());\n\n        _setupRole(IMPLEMENTATION_ROLE, msg.sender);\n        _setupRole(DEFAULT_ADMIN_ROLE, msg.sender);\n    }\n\n    /*\n       @dev: Set new configuration\n       @param {address} _address - This is address of new configuration\n    */\n    function setConfiguration(INftConfigurations _nftConfigurations) external onlyRole(IMPLEMENTATION_ROLE) {\n        require(address(_nftConfigurations) != address(0x0), \"Address of configuration must be required.\");\n        nftConfigurations = _nftConfigurations;\n        emit SetConfiguration(address(_nftConfigurations));\n    }\n\n    /*\n    *   Create instance of NftCollection\n    *   @param {uint8} _maxRarityValue - the maximum of the rarity's indexs\n    */\n    function createNftCollection(\n        string memory _name,\n        string memory _symbol\n    ) external onlyRole(IMPLEMENTATION_ROLE) {\n\n        address collection = Clones.clone(implementationAddress);\n\n        // Initialize\n        CharacterToken(collection).initialize(\n            _name,\n            _symbol,\n            dappCreatorAddress,\n            address(nftConfigurations)\n        );\n\n        // Add new collection to configuration\n        nftConfigurations.InsertNewCollectionAddress(collection);\n\n\n        nftCollectionsList.add(collection);\n\n        emit CreateNftCollection(\n            collection,\n            dappCreatorAddress\n        );\n    }\n\n    /*\n        @dev\n        @param {address} _nftCollection\n        @param {uint256} _rarity\n        @param {uint256} _meshIndex\n        @param {uint256} _price\n        @param {uint256} _meshMaterial\n        @param {string} _cid\n\n    */\n    function configOne(\n        address _nftCollection,\n        uint256 _rarity,\n        uint256 _meshIndex,\n        uint256 _price,\n        uint256 _meshMaterial,\n        string memory _cid\n    ) external onlyRole(IMPLEMENTATION_ROLE) {\n        require(nftCollectionsList.contains(_nftCollection), \"Collection: The collection doesn't exist\");\n        nftConfigurations.configOne(\n            _nftCollection,\n            _rarity,\n            _meshIndex,\n            _price,\n            _meshMaterial,\n            _cid\n        );\n        emit ConfigOne(\n            _nftCollection,\n            _rarity,\n            _meshIndex,\n            _price,\n            _meshMaterial,\n            _cid\n        );\n    }\n\n    /*\n        @dev\n        @param {address} _nftCollection\n        @param {uint256} _rarity\n        @param {uint256} _meshIndex\n        @param {uint256} _price\n        @param {uint256} _meshMaterial\n        @param {string} _cid\n\n    */\n    function configMesh(\n        address _nftCollection,\n        uint256 _rarity,\n        uint256 _meshIndex,\n        uint256 _price\n    ) external onlyRole(IMPLEMENTATION_ROLE) {\n        require(nftCollectionsList.contains(_nftCollection), \"Collection: The collection doesn't exist\");\n        nftConfigurations.configMesh(\n            _nftCollection,\n            _rarity,\n            _meshIndex,\n            _price\n        );\n        emit ConfigMesh(\n            _nftCollection,\n            _rarity,\n            _meshIndex,\n            _price\n        );\n    }\n\n    function supportsInterface(bytes4 interfaceId) public view override(AccessControl) returns (bool) {\n        return super.supportsInterface(interfaceId);\n    }\n\n    function getCurrentDappCreatorAddress() external view onlyRole(IMPLEMENTATION_ROLE) returns (address) {\n        return dappCreatorAddress;\n    }\n\n    function getCollectionAddress(uint256 index) external view returns(address) {\n        return nftCollectionsList.at(index);\n    }\n\n    function isValidNftCollection(address _nftCollection) external view returns (bool) {\n        return nftCollectionsList.contains(_nftCollection);\n    }\n\n    // Setters\n    function setDappCreatorAddress(address _dappCreatorAddress) external onlyRole(IMPLEMENTATION_ROLE) {\n        dappCreatorAddress = _dappCreatorAddress;\n        emit SetDappCreator(_dappCreatorAddress);\n    }\n\n    /**\n     *  @notice Function Set new minter Role for a collection\n     *  @dev Call to NFT collection to set MINTER_ROLE\n     */\n    function setNewMinter(\n        address _characterToken,\n        address _newMinter\n    ) external onlyRole(IMPLEMENTATION_ROLE) {\n        CharacterToken(_characterToken).setMinterRole(_newMinter);\n        emit SetNewMinterRole(_characterToken, _newMinter);\n    }\n}\n",
    "sourcePath": "/Users/phamanhtai/ATOM/katana-inu/ktn-smc/contracts/KatanaNftFactory.sol",
    "compiler": {
        "name": "solc",
        "version": "0.8.17+commit.8df45f5f.Emscripten.clang"
    },
    "schemaVersion": "3.4.10",
    "updatedAt": "2022-11-18T08:42:06.288Z",
    "networkType": "ethereum",
    "devdoc": {
        "kind": "dev",
        "methods": {
            "getRoleAdmin(bytes32)": {
                "details": "Returns the admin role that controls `role`. See {grantRole} and {revokeRole}. To change a role's admin, use {_setRoleAdmin}."
            },
            "grantRole(bytes32,address)": {
                "details": "Grants `role` to `account`. If `account` had not been already granted `role`, emits a {RoleGranted} event. Requirements: - the caller must have ``role``'s admin role. May emit a {RoleGranted} event."
            },
            "hasRole(bytes32,address)": {
                "details": "Returns `true` if `account` has been granted `role`."
            },
            "renounceRole(bytes32,address)": {
                "details": "Revokes `role` from the calling account. Roles are often managed via {grantRole} and {revokeRole}: this function's purpose is to provide a mechanism for accounts to lose their privileges if they are compromised (such as when a trusted device is misplaced). If the calling account had been revoked `role`, emits a {RoleRevoked} event. Requirements: - the caller must be `account`. May emit a {RoleRevoked} event."
            },
            "revokeRole(bytes32,address)": {
                "details": "Revokes `role` from `account`. If `account` had been granted `role`, emits a {RoleRevoked} event. Requirements: - the caller must have ``role``'s admin role. May emit a {RoleRevoked} event."
            },
            "setNewMinter(address,address)": {
                "details": "Call to NFT collection to set MINTER_ROLE"
            },
            "supportsInterface(bytes4)": {
                "details": "See {IERC165-supportsInterface}."
            }
        },
        "version": 1
    },
    "userdoc": {
        "kind": "user",
        "methods": {
            "setNewMinter(address,address)": {
                "notice": "Function Set new minter Role for a collection"
            }
        },
        "version": 1
    }
}